:020000040800F2
:1000000000040020C1010008011C0008011C0008B8
:1000100021150008011C0008011C0008011C000833
:10002000011C0008011C0008011C0008D138000850
:10003000011C0008011C0008011C00084182000886
:10004000011C0008F15F000881610008D16100080F
:10005000011C0008011C0008315D0008815D0008DA
:10006000D15D0008215E0008715E0008C1530008E0
:100070001154000861540008B154000801550008EB
:1000800051550008A1550008A15B000871630008E4
:10009000E16300089164000841650008C15E000842
:1000A000011C0008011C0008F17C0008011C00086C
:1000B000017E0008417E0008817E00084171000831
:1000C00081720008011C0008011C0008011C0008C6
:1000D000011C0008011C0008011C00080183000825
:1000E000515F00084160000891600008011C000891
:1000F000011C0008011C0008011C0008F155000843
:10010000011C0008D1660008C17E0008011C00081F
:10011000011C0008011C0008B17C0008011C00083B
:100120004156000891560008E15600083157000872
:1001300081570008011C0008E1600008011C00084C
:10014000011C0008011C0008011C0008F1780008CF
:10015000D15700082158000871580008011C0008F8
:10016000011C0008011C0008011C0008011C0008FB
:1001700031610008011C000811130008011C00086F
:10018000011C0008011C0008011C0008011C0008DB
:10019000011C0008011C0008011C0008011C0008CB
:1001A000011C0008011C0008011C0008011C0008BB
:1001B000011C0008011C0008011C0008011C0008AB
:1001C00072B62E4880F3098840F20000CCF200009D
:1001D0004EF63471CEF20001086040F20000C0F229
:1001E000F0004EF68851CEF2000108604FF000009A
:1001F000E1EE100A4EF63C71CEF2000108600620D6
:1002000080F31488BFF36F8F08F06AF94FF0553010
:100210001B491C4A91423CBF41F8040BFAE71A49BA
:10022000164A91423CBF41F8040BFAE71749184AB5
:10023000184B9A423EBF51F8040B42F8040BF8E702
:1002400000201549154A91423CBF41F8040BFAE7DA
:1002500001F0BEFC124C134DAC4203DA54F8041BFF
:100260008847F9E700F0D4FF0F4C104DAC4203DA99
:1002700054F8041B8847F9E701F0BABC00080020D5
:1002800000000020000400200004002098CA00089C
:1002900000080020C4110020C811002060210020A7
:1002A000C0010008C0010008C0010008C00100082A
:1002B0002DE9F04F2DED108AC1F80CD0D0F80CD0FC
:1002C000BDEC108ABDE8F08F01F0DAFD02F0B8FD58
:1002D000002383F311882846A047002002F080FB0A
:1002E00002F096FD01F0ACFD02F0A2F901F0C8FDAC
:1002F00002F0A6FD00DFFEE70000000000000000A5
:1003000081F0004102E000BF83F0004330B54FEAC6
:1003100041044FEA430594EA050F08BF90EA020F33
:100320001FBF54EA000C55EA020C7FEA645C7FEAC6
:10033000655C00F0E2804FEA5454D4EB5555B8BFE9
:100340006D420CDD2C4480EA020281EA030382EA5A
:10035000000083EA010180EA020281EA0303362DEC
:1003600088BF30BD11F0004F4FEA01314FF4801CBF
:100370004CEA113102D0404261EB410113F0004FD1
:100380004FEA03334CEA133302D0524263EB430388
:1003900094EA050F00F0A780A4F10104D5F1200E26
:1003A0000DDB02FA0EFC22FA05F2801841F1000181
:1003B00003FA0EF2801843FA05F359410EE0A5F155
:1003C00020050EF1200E012A03FA0EFC28BF4CF086
:1003D000020C43FA05F3C01851EBE37101F000453C
:1003E00007D54FF0000EDCF1000C7EEB00006EEB49
:1003F0000101B1F5801F1BD3B1F5001F0CD34908D3
:100400005FEA30004FEA3C0C04F101044FEA445229
:1004100012F5800F80F09A80BCF1004F08BF5FEAB0
:10042000500C50F1000041EB045141EA050130BD90
:100430005FEA4C0C404141EB010111F4801FA4F133
:100440000104E9D191F0000F04BF01460020B1FA88
:1004500081F308BF2033A3F10B03B3F120020CDAC0
:100460000C3208DD02F1140CC2F10C0201FA0CF09E
:1004700021FA02F10CE002F11402D8BFC2F1200C03
:1004800001FA02F120FA0CFCDCBF41EA0C019040B9
:10049000E41AA2BF01EB0451294330BD6FEA040402
:1004A0001F3C1CDA0C340EDC04F11404C4F12002ED
:1004B00020FA04F001FA02F340EA030021FA04F3FF
:1004C00045EA030130BDC4F10C04C4F1200220FA56
:1004D00002F001FA04F340EA0300294630BD21FA94
:1004E00004F0294630BD94F0000F83F4801306BF5A
:1004F00081F480110134013D4EE77FEA645C18BF4E
:100500007FEA655C29D094EA050F08BF90EA020FE4
:1005100005D054EA000C04BF1946104630BD91EADC
:10052000030F1EBF0021002030BD5FEA545C05D1DF
:100530004000494128BF41F0004130BD14F580041E
:100540003CBF01F5801130BD01F0004545F0FE4192
:1005500041F470014FF0000030BD7FEA645C1ABFC7
:10056000194610467FEA655C1CBF0B46024650EAFE
:10057000013406BF52EA033591EA030F41F400212A
:1005800030BD00BF90F0000F04BF0021704730B5B0
:100590004FF4806404F132044FF000054FF0000185
:1005A00050E700BF90F0000F04BF0021704730B546
:1005B0004FF4806404F1320410F0004548BF40421B
:1005C0004FF000013EE700BF42004FEAE2014FEA70
:1005D00031014FEA02701FBF12F07F4393F07F4F4B
:1005E00081F06051704732F07F4208BF704793F04E
:1005F0007F4F04BF41F40021704730B54FF4607461
:1006000001F0004521F000411CE700BF50EA010263
:1006100008BF704730B54FF000050AE050EA01020C
:1006200008BF704730B511F0004502D5404261EB7C
:1006300041014FF4806404F132045FEA915C3FF4BD
:10064000D8AE4FF003025FEADC0C18BF03325FEA5A
:10065000DC0C18BF033202EBDC02C2F1200300FA0B
:1006600003FC20FA02F001FA03FE40EA0E0021FA30
:1006700002F11444BDE600BF0000000000000000CD
:1006800070B54FF0FF0C4CF4E06C1CEA11541DBF28
:100690001CEA135594EA0C0F95EA0C0F00F0DEF8F3
:1006A0002C4481EA030621EA4C5123EA4C5350EAD8
:1006B000013518BF52EA033541F4801143F4801329
:1006C00038D0A0FB02CE4FF00005E1FB02E506F0BA
:1006D0000042E0FB03E54FF00006E1FB03569CF00F
:1006E000000F18BF4EF0010EA4F1FF04B6F5007F15
:1006F00064F5407404D25FEA4E0E6D4146EB060687
:1007000042EAC62141EA55514FEAC52040EA5E500F
:100710004FEACE2EB4F1FD0C88BFBCF5E06F1ED8B9
:10072000BEF1004F08BF5FEA500E50F1000041EBF0
:10073000045170BD06F0004646EA010140EA02009D
:1007400081EA0301B4EB5C04C2BFD4EB0C0541EABF
:10075000045170BD41F480114FF0000E013C00F3D4
:10076000AB8014F1360FDEBF002001F0004170BDF8
:10077000C4F10004203C35DA0C341BDC04F1140411
:10078000C4F1200500FA05F320FA04F001FA05F29D
:1007900040EA020001F0004221F0004110EBD3706A
:1007A00021FA04F642EB06015EEA430E08BF20EA96
:1007B000D37070BDC4F10C04C4F1200500FA04F339
:1007C00020FA05F001FA04F240EA020001F00041CB
:1007D00010EBD37041F100015EEA430E08BF20EA3E
:1007E000D37070BDC4F1200500FA05F24EEA020E86
:1007F00020FA04F301FA05F243EA020321FA04F0B5
:1008000001F0004121FA04F220EA020000EBD3706B
:100810005EEA430E08BF20EAD37070BD94F0000F6B
:100820000FD101F00046400041EB010111F4801F9F
:1008300008BF013CF7D041EA060195F0000F18BF50
:10084000704703F00046520043EB030313F4801F8C
:1008500008BF013DF7D043EA0603704794EA0C0F46
:100860000CEA135518BF95EA0C0F0CD050EA41065C
:1008700018BF52EA4306D1D181EA030101F00041D9
:100880004FF0000070BD50EA410606BF1046194601
:1008900052EA430619D094EA0C0F02D150EA01360D
:1008A00013D195EA0C0F05D152EA03361CBF10464E
:1008B00019460AD181EA030101F0004141F0FE41ED
:1008C00041F470014FF0000070BD41F0FE4141F471
:1008D000780170BD70B54FF0FF0C4CF4E06C1CEA71
:1008E00011541DBF1CEA135594EA0C0F95EA0C0F26
:1008F00000F0A7F8A4EB050481EA030E52EA0335E1
:100900004FEA013100F088804FEA03334FF0805501
:1009100045EA131343EA12634FEA022245EA11152E
:1009200045EA10654FEA00260EF000419D4208BFDF
:10093000964244F1FD0404F5407402D25B084FEA8C
:100940003202B61A65EB03055B084FEA32024FF438
:1009500080104FF4002CB6EB020E75EB030E22BF95
:10096000B61A754640EA0C005B084FEA3202B6EB55
:10097000020E75EB030E22BFB61A754640EA5C0004
:100980005B084FEA3202B6EB020E75EB030E22BF94
:10099000B61A754640EA9C005B084FEA3202B6EB95
:1009A000020E75EB030E22BFB61A754640EADC0054
:1009B00055EA060E18D04FEA051545EA16754FEAB6
:1009C00006164FEAC30343EA52734FEAC2025FEAD4
:1009D0001C1CC0D111F4801F0BD141EA00014FF063
:1009E00000004FF0004CB6E711F4801F04BF014334
:1009F0000020B4F1FD0C88BFBCF5E06F3FF6AFAE50
:100A0000B5EB030C04BFB6EB020C5FEA500C50F1DF
:100A1000000041EB045170BD0EF0004E4EEA113162
:100A200014EB5C04C2BFD4EB0C0541EA045170BD69
:100A300041F480114FF0000E013C90E645EA060EAD
:100A40008DE60CEA135594EA0C0F08BF95EA0C0FDB
:100A50003FF43BAF94EA0C0F0AD150EA01347FF423
:100A600034AF95EA0C0F7FF425AF104619462CE7FA
:100A700095EA0C0F06D152EA03353FF4FDAE10465D
:100A8000194622E750EA410618BF52EA43067FF4AE
:100A9000C5AE50EA41047FF40DAF52EA43057FF43E
:100AA000EBAE12E7000000000000000000000000B4
:100AB0004FEA410212F5001215D211D56FF4787386
:100AC000B3EB625212D94FEAC12343F0004343EA29
:100AD000505311F0004F23FA02F018BF4042704704
:100AE0004FF00000704750EA013005D111F000408E
:100AF00008BF6FF0004070474FF00000704700BF24
:100B000053B94AB9002908BF00281CBF4FF0FF3174
:100B10004FF0FF3000F074B9ADF1080C6DE904CE70
:100B200000F006F8DDF804E0DDE9022304B07047C8
:100B30002DE9F047089E04468846002B4BD18A4297
:100B4000154667D9B2FA82F24AB1C2F1200701FA1A
:100B500002F320FA07F7954047EA030894404FEA6A
:100B6000154E230CB8FBFEF71FFA85FC0EFB178809
:100B700043EA084307FB0CF1994209D9EB1807F146
:100B8000FF3080F01B81994240F21881023F2B44D4
:100B90005B1AA4B2B3FBFEF00EFB103344EA03442D
:100BA00000FB0CFCA44509D92C1900F1FF3380F09F
:100BB0000781A44540F2048102382C4440EA0740F2
:100BC000A4EB0C0400271EB1D4400023C6E9004367
:100BD0003946BDE8F0878B4209D9002E00F0EB8042
:100BE0000027C6E9000138463946BDE8F087B3FA68
:100BF00083F7002F47D18B4202D3824200F2FA8062
:100C0000841A61EB030301209846002EE0D0C6E968
:100C10000048DDE702B9FFDEB2FA82F2002A40F0B6
:100C20008F80491B4FEA154E1FFA85F80127B1FB4B
:100C3000FEFC230C0EFB1C1143EA014308FB0CF1E4
:100C4000994207D9EB180CF1FF3002D2994200F219
:100C5000CD808446591AA3B2B1FBFEF00EFB1014EE
:100C600043EA044408FB00F8A04507D92C1900F119
:100C7000FF3302D2A04500F2B6801846A4EB080468
:100C800040EA0C409FE7C7F1200CBB4022FA0CFE63
:100C90004EEA030E01FA07F420FA0CF521FA0CF3E0
:100CA0004FEA1E482543B3FBF8F92C0C08FB193317
:100CB0001FFA8EFA44EA034309FB0AF49C4202FA43
:100CC00007F200FA07F10BD91EEB030309F1FF301D
:100CD00080F087809C4240F28480A9F1020973442D
:100CE0001B1BADB2B3FBF8F008FB103345EA03441D
:100CF00000FB0AFAA24508D91EEB040400F1FF33F9
:100D00006BD2A24569D90238744440EA0940A0FB7D
:100D10000289A4EB0A044C45C2464B4654D351D039
:100D2000002E69D0B1EB0A0564EB030404FA0CFC55
:100D3000FD40FC404CEA0505C6E90054002747E7A2
:100D4000C2F1200320FA03F7954001FA02F021FADC
:100D500003F34FEA154E3843010CB3FBFEF71FFABD
:100D600085F80EFB173341EA034107FB08F38B427A
:100D700004FA02F407D9691807F1FF3C2FD28B421D
:100D80002DD9023F2944CB1A81B2B3FBFEF00EFBF2
:100D9000103341EA034100FB08F38B4207D969187D
:100DA00000F1FF3C17D28B4215D902382944C91AE9
:100DB00040EA07473BE73746304609E70746E7E69C
:100DC0001846FBE64145ABD2B8EB020A69EB0E02CE
:100DD00001381346A4E76046E9E7184695E76746F9
:100DE000D1E781467CE702382C4447E7ACF1020C9E
:100DF0002B442FE7384608E73746E9E600000000B5
:100E0000704700BF0000000000000000000000006C
:100E1000844641EA000313F003036DD1403A41D305
:100E200051F8043B40F8043B51F8043B40F8043BC4
:100E300051F8043B40F8043B51F8043B40F8043BB4
:100E400051F8043B40F8043B51F8043B40F8043BA4
:100E500051F8043B40F8043B51F8043B40F8043B94
:100E600051F8043B40F8043B51F8043B40F8043B84
:100E700051F8043B40F8043B51F8043B40F8043B74
:100E800051F8043B40F8043B51F8043B40F8043B64
:100E900051F8043B40F8043B51F8043B40F8043B54
:100EA000403ABDD2303211D351F8043B40F8043BF4
:100EB00051F8043B40F8043B51F8043B40F8043B34
:100EC00051F8043B40F8043B103AEDD20C3205D304
:100ED00051F8043B40F8043B043AF9D2043208D0FC
:100EE000D2071CBF11F8013B00F8013B01D30B886E
:100EF00003806046704700BF082A13D38B078DD04C
:100F000010F003038AD0C3F10403D21ADB071CBF1D
:100F100011F8013B00F8013B80D331F8023B20F887
:100F2000023B7BE7043AD9D3013A11F8013B00F8C0
:100F3000013BF9D20B7803704B7843708B78837048
:100F40006046704700000000000000000000000044
:100F500090F800F06DE9024520F007016FF0000CF9
:100F600010F0070491F820F040F049804FF00004A1
:100F70006FF00700D1E9002391F840F000F108007C
:100F800082FA4CF2A4FA8CF283FA4CF3A2FA8CF3B4
:100F90004BBBD1E9022382FA4CF200F10800A4FA1B
:100FA0008CF283FA4CF3A2FA8CF3E3B9D1E904236F
:100FB00082FA4CF200F10800A4FA8CF283FA4CF3A6
:100FC000A2FA8CF37BB9D1E9062301F1200182FA60
:100FD0004CF200F10800A4FA8CF283FA4CF3A2FA66
:100FE0008CF3002BC6D0002A04BF04301A4612BA74
:100FF000B2FA82F2FDE8024500EBD2007047D1E977
:10100000002304F00305C4F100004FEAC50514F005
:10101000040F91F840F00CFA05F562EA05021CBFD6
:1010200063EA050362464FF00004A9E700000000F0
:1010300001F0FF01102A2BDB10F0070F08D010F889
:10104000013B013A8B422DD010F0070F42B3F6D18D
:10105000F0B441EA012141EA014122F007047FF0A6
:1010600000070023F0E80256083C85EA010586EAFD
:10107000010685FA47F5A3FA87F586FA47F6A5FA39
:1010800087F68EB9EED1F0BC01F0FF0102F0070245
:1010900032B110F8013B013A83EA010313B1F8D1F0
:1010A0000020704701387047002D06BF35460338D1
:1010B000073815F0010F07D1013015F4807F02BF0A
:1010C000013015F4C03F0130F0BC0138704700BF5B
:1010D0004FF0FF3C06E000BF4FF0010C02E000BF04
:1010E0004FF0010C4DF804CD4FEA410C7FEA6C5CE7
:1010F0004FEA430C18BF7FEA6C5C1BD001B050EA8A
:10110000410C0CBF52EA430C91EA030F02BF90EA74
:10111000020F0020704710F1000F91EA030F58BF33
:10112000994208BF90422CBFD8176FEAE37040F095
:10113000010070474FEA410C7FEA6C5C02D150EA33
:10114000013C07D14FEA430C7FEA6C5CD6D152EAEE
:10115000033CD3D05DF8040B704700BF84461046B3
:1011600062468C461946634600E000BF01B5FFF7B2
:10117000B7FF002848BF10F1000F01BD4DF808ED82
:10118000FFF7F4FF0CBF012000205DF808FB00BF53
:101190004DF808EDFFF7EAFF34BF012000205DF8AD
:1011A00008FB00BF4DF808EDFFF7E0FF94BF0120FA
:1011B00000205DF808FB00BF4DF808EDFFF7CEFFFB
:1011C00094BF012000205DF808FB00BF4DF808ED3A
:1011D000FFF7C4FF34BF012000205DF808FB00BF0B
:1011E0004FEA410C7FEA6C5C02D150EA013C0AD123
:1011F0004FEA430C7FEA6C5C02D152EA033C02D115
:101200004FF0000070474FF00100704700000000F1
:101210002DE9F0411A4B1B4C1B68DFF86C8082B043
:101220002027019302F0B4FB00F002FD00F020F94A
:1012300000F0F6FB002687F3118801F0E9FD00F0CD
:10124000FFFDA56A00F01CFE01F0FAFD2368A34231
:1012500007D0A2699B6892689A4202D2404600F089
:101260004FFD86F31188B42000F0C2FB6FF0B3008D
:1012700000F0A6FB05F10A01284601F031FBDAE790
:101280000008002090120020B0BE000800000000FE
:1012900000B5084B83B01A680192019A1B689A4204
:1012A00005D1054803B05DF804EB00F029BDFFF758
:1012B000EFFF00BF00080020C0BE000800000000D3
:1012C00030B5104D81682B680F4A83B001930B68CD
:1012D00023F001030B608168946A03E0936A1B1B8F
:1012E000C72B09D8086810F00100F7D1019A2B68C4
:1012F0009A4204D103B030BD4FF0FF30F6E7FFF75C
:10130000C7FF00BF0008002090120020000000006E
:10131000F0B5284D83B02B68019301F041FD00F03A
:101320000FFE254B1E69F20715D55A69234C42F072
:1013300001025A612778BB1F012B2AD90522636855
:1013400022701B680BB120469847042F27D0022F2C
:1013500025D003232370B30710D5174A174C5369C0
:1013600043F0020353612378032B1DD063689B680D
:101370000622227013B101211048984700F008FEA0
:10138000019A2B689A4213D103B0BDE8F04002F0F5
:10139000BFBA019A2B689A420AD103B0F0BD02236A
:1013A0002370B307EAD5D8E72046FFF789FFDDE7CA
:1013B000FFF76EFF0008002000000550C811002054
:1013C0002DE9F043254E83B034680194042A9DF83A
:1013D0002890144605460F46984639D9B9F1000FB2
:1013E00014BF00224FF08052640002EB0863013CFE
:1013F0001C4405F00F0527F01F07202383F31188F5
:1014000001F006FD3D4300F01BFD154B1035DD607E
:101410001C6100F035FD01F013FD124B1A689A4271
:1014200004D0996993688A689A420DD3002383F3A4
:101430001188BFF36F8FBFF34F8F019A33689A42C1
:101440000AD103B0BDE8F083074800F059FCEDE78E
:10145000064800F055FCC1E7FFF71AFF000800201E
:1014600090ED00E09012002060BF000840BF00082F
:1014700030B5224D224C2B68224A85B00393636815
:1014800043F004036360536A43F4803353622023C0
:1014900083F3118801F0BCFC00F0D2FC17221A4B38
:1014A000E260236100F0ECFC01F0CAFC174B1A6803
:1014B0009A4204D0996993688A689A4218D30020A6
:1014C00080F31188BFF36F8FBFF34F8F03231D226B
:1014D00000904FF00051FFF773FF094A536843F043
:1014E00001035360039A2B689A4205D105B030BDC1
:1014F000074800F005FCE2E7FFF7CAFE00080020FD
:1015000090ED00E000ED00E00900001090120020D6
:1015100060BF0008000000000000000000000000A4
:1015200070B51A4D1A4C1B4E0FCD0FC49EB02A68D1
:10153000336822801D93EFF30981682203A8FFF727
:1015400067FC154B9D6AAA0714D4EB0708D5124B0C
:1015500008995B6B114A00910D48802107F028FB28
:101560001D9A33689A420FD109481EB0BDE87040F9
:1015700000F0C6BB099A5B6B0092A4F11000084A08
:10158000802107F015FBE0E7FFF782FE24BF00088B
:10159000DC1100200008002000ED00E000BF000882
:1015A000E0BE000800000000000000000000000095
:1015B00000B51F4B0278196883B00191E2B11D4A52
:1015C0004FF4005111834278EAB11A4A4FF4805126
:1015D00011838278F2B1174A4FF480411183C278A7
:1015E000FAB9144A4FF400415183019A1B689A4298
:1015F0001CD103B05DF804FB0E4A4FF40051518337
:101600004278002AE1D10B4A4FF48051518382780D
:10161000002AE0D1074A4FF480415183C278002A62
:10162000DFD0044A4FF400411183DEE7FFF730FEBC
:101630000008002000100240000000000000000030
:1016400000B51F4B0278196883B00191E2B11D4AC1
:101650004FF4007111834278EAB11A4A4FF4807155
:1016600011838278F2B1174A4FF400611183C27876
:10167000FAB9144A4FF480615183019A1B689A4267
:101680001CD103B05DF804FB0E4A4FF40071518386
:101690004278002AE1D10B4A4FF48071518382785D
:1016A000002AE0D1074A4FF400615183C278002A32
:1016B000DFD0044A4FF480611183DEE7FFF7E8FDD5
:1016C00000080020001002400000000000000000A0
:1016D00030B50C4A0C4B116883B04FF400550191A2
:1016E0004FF480544FF400414FF480405D835C839D
:1016F0005883598301991368994201D103B030BDD1
:10170000FFF7C6FD000800200010024000000000A6
:1017100030B50C4A0C4B116883B04FF40075019141
:101720004FF480744FF480614FF400605D835C83FC
:101730005883598301991368994201D103B030BD90
:10174000FFF7A6FD00080020001002400000000086
:1017500010B50B4C0B48236882B0992200210193ED
:1017600002F02EFC019A23689A4206D10548002116
:1017700002B0BDE8104002F00BBDFFF789FD00BFCD
:101780000008002060200020000000000000000091
:1017900010B50B4C0B48236882B0992200210193AD
:1017A00002F00EFC019A23689A4206D105480021F6
:1017B00002B0BDE8104002F0EBBCFFF769FD00BFCE
:1017C000000800207C200020000000000000000035
:1017D00000B5084B83B01A680192019A1B689A42BF
:1017E00006D10548002103B05DF804EB02F038BCD7
:1017F000FFF74EFD000800206020002000000000E0
:1018000000B5084B83B01A680192019A1B689A428E
:1018100006D10548002103B05DF804EB02F020BCBE
:10182000FFF736FD000800207C20002000000000AB
:1018300070B51A4C1A4E2378326882B0022B01928E
:10184000A26811D165781748013505F0070500EB4E
:101850008500904763686570013B6360019A336857
:101860009A4219D102B070BD012B08D0019933689A
:10187000994211D10C4802B0BDE87040104765781C
:101880000848013D05F0070500EB850090476368B7
:10189000657001336360E1E7FFF7FAFC7412002022
:1018A0000008002000C00008F0BF00080000000091
:1018B00070B51A4C1A4E2378326882B0012B01920F
:1018C000A26811D165781748013505F0070500EBCE
:1018D000850090476368657001336360019A3368DF
:1018E0009A4219D102B070BD022B08D00199336819
:1018F000994211D10C4802B0BDE87040104765789C
:101900000848013D05F0070500EB85009047636836
:101910006570013B6360E1E7FFF7BAFC5C120020F1
:101920000008002000C00008F0BF00080000000010
:1019300030B51F4D85B02B68039340F24C4399425C
:10194000044626DCA3F69803994211DB4B00002BDA
:1019500029D10370036998474FF47A71039A2B6871
:101960009A421ED1606905B0BDE8304002F0E0BA8D
:10197000104B02225B42227040F2892293420E49B0
:1019800091FBF3F189B207DC0191E3689847019973
:10199000E4E7012303702D21019123699847019900
:1019A000DCE7FFF775FCE4DD01220270E4E700BF2D
:1019B0000008002068F7FFFFA0860100000000007B
:1019C00000B5084B83B01A680192019A1B689A42CD
:1019D00006D10146044803B05DF804EBFFF7A8BF49
:1019E000FFF756FC000800205C12002000000000F9
:1019F00000B5084B83B01A680192019A1B689A429D
:101A000006D10146044803B05DF804EBFFF790BF30
:101A1000FFF73EFC000800207412002000000000C8
:101A200070B51D4E1D4A1E4B30681E491E4C9160FC
:101A300082B00021D46001901C4C1D481D4D9D605A
:101A4000117051705160106154611B481B4A1C4D4C
:101A5000D8601C48197059705960C3E90425FFF714
:101A6000A7FD1848FFF7ECFD1749204602F010FAD1
:101A7000204602F045FB2846144902F009FA019A73
:101A800033689A4205D1284602B0BDE8704002F0A2
:101A900037BBFFF7FDFB00BF0008002074120020D9
:101AA0005C120020B11500085117000860200020CA
:101AB000D117000841160008911700080118000806
:101AC0007C200020F0BF0008B0BF000870BF0008F5
:101AD0000A490B4B09680B4A82B020200191402132
:101AE00058834FF4806559834FF400644FF480406D
:101AF00004215D835C8358835183FEE70008002046
:101B0000000C024000040240000000000000000041
:101B100000B5084B83B01A680192019A1B689A427B
:101B200005D1054803B05DF804EB01F0B9BAFFF741
:101B3000AFFB00BF000800200408002000000000E8
:101B400000B5084B83B01A680192019A1B689A424B
:101B500005D1054803B05DF804EB01F0D9BAFFF7F1
:101B600097FB00BF000800200408002000000000D0
:101B700070B50D4C82B0236801930D1E06460DDD35
:101B8000284601F03DFE18B90C2333604FF0FF30BA
:101B9000019A23689A4205D102B070BD034800F053
:101BA000AFF8EDE7FFF774FB0008002020C0000845
:101BB00000B5064B83B01A680192019A1B689A42DD
:101BC00002D103B05DF804FBFFF762FB00080020C0
:101BD00000B5064B83B01A680192019A1B689A42BD
:101BE00002D103B05DF804FBFFF752FB00080020B0
:101BF000024B82B01B680193FEE700BF0008002083
:101C000000B5044B04481B6883B0019300F078F8DA
:101C1000FEE700BF0008002030C000080000000000
:101C2000024B82B01B680193FEE700BF0008002052
:101C3000F0B5294E294B3268294885B0002403921B
:101C40009C60D968274A4FF6FF0529400A43DA60AD
:101C5000C2682549254D42F08072C2600A6842F090
:101C600001020A6010202022D87783F8222000F099
:101C7000DFFA00F045FA01F01BF801F099FD01F0E0
:101C800007FE01F06DF800F0FBF9402105F58860D2
:101C900000F0F6FC0127164BC36180F82070A861A4
:101CA00000F0A6F884F3118862B6AB69114A9A6114
:101CB0004FF4C4713A46104B009405F59D6000F056
:101CC00077FD039A33680D4981619A4201D105B0CD
:101CD000F0BDFFF7DDFA00BF0008002000ED00E0D6
:101CE000F0ED00E00003FA05001000E09012002083
:101CF00000040020B0C10008211C000850C00008EA
:101D000000B5054B83B01B680193044672B6FFF71C
:101D1000DFFE024BDC62FEE700080020901200208C
:101D20002DE9F047DFF890A0224DDAF8003082B0BC
:101D3000019300F055F9AB6993F8232012B1013AF1
:101D400083F823205A6ADFF8748001325A6200F067
:101D500047F9AB6AEA6901334245AB6220D0936828
:101D6000013B9360EC69A668D6B94FF0200923685F
:101D7000E768E660C3F804802368EB6100F0C0F810
:101D800001F08EF886F311882069B84789F311882D
:101D900001F06EF800F094F8EC69A368002BE6D02F
:101DA000019ADAF800309A4202D102B0BDE8F08719
:101DB000FFF76EFA9012002000080020AC120020FD
:101DC00010B5094C094A236882B0019351685368E1
:101DD0005B1A9842FBD8019A23689A4201D102B05B
:101DE00010BDFFF755FA00BF00080020001000E00A
:101DF00000B50E4A0E4B116B186883B0019009B9FB
:101E0000526B4AB1019A1B689A420CD1094803B03F
:101E10005DF804EBFFF774BF019A1B689A4202D188
:101E200003B05DF804FBFFF733FA00BF9012002007
:101E30000008002060C00008000000000000000052
:101E400030B50B4C0B4D236B2A6883B001920BB954
:101E5000636B13B10848FFF753FF019A2B68012108
:101E60009A42616301D103B030BDFFF711FA00BFA0
:101E7000901200200008002090C000080000000020
:101E800030B50C4C0C4D236B2A6883B0019253B9CA
:101E9000636B002B07DD019A2B6800219A42616376
:101EA00005D103B030BD0548FFF72AFFF3E7FFF780
:101EB000EFF900BF9012002000080020B0C0000819
:101EC00030B50B4C0B4D236B2A6883B0002B01926D
:101ED00001DD636B13B10848FFF712FF019A2B680D
:101EE00001219A42616301D103B030BDFFF7D0F9FF
:101EF0009012002000080020A0C000080000000090
:101F000030B50C4C0C4D236B2A6883B0002B01922A
:101F10000ADD636B002B07DD019A2B6800219A42D2
:101F2000616305D103B030BD0448FFF7E9FEF3E774
:101F3000FFF7AEF99012002000080020C0C0000892
:101F400030B50F4D83B02B680193202383F31188A4
:101F50000C4C236B002B01DB626B1AB10A48FFF7B4
:101F6000CFFE236B01332363002383F31188019A8F
:101F70002B689A4201D103B030BDFFF789F900BF49
:101F8000000800209012002070C00008000000002F
:101F900030B50F4D83B02B680193202383F3118854
:101FA0000C4C236B002B01DD626B1AB10A48FFF762
:101FB000A7FE236B013B2363002383F31188019A5F
:101FC0002B689A4201D103B030BDFFF761F900BF21
:101FD000000800209012002080C0000800000000CF
:101FE00000B50F4A0F4B116B186883B000290190A0
:101FF00009DB526B002A06DD019A1B689A420CD15C
:1020000003B05DF804FB019A1B689A4205D10648AB
:1020100003B05DF804EBFFF773BEFFF739F900BFBB
:102020009012002000080020D0C00008000000002E
:1020300000B50E4A0E4B116B186883B0019049B978
:10204000526B002A06DD019A1B689A420CD103B03C
:102050005DF804FB019A1B689A4205D1054803B05C
:102060005DF804EBFFF74CBEFFF712F99012002069
:1020700000080020E0C00008000000000000000090
:1020800010B5084A084B116882B0402401910199AB
:10209000126818199142C3E90E4001D102B010BD77
:1020A000FFF7F6F800080020901200200000000062
:1020B00010B51149114B0A6882B00192DA6B9C6A23
:1020C0001460DA6B9C695460DA6B846A9460DA6B32
:1020D00090F820001073DA6B03F5886010328242AA
:1020E00028BF03F14002DA63019A0B689A4201D1DA
:1020F00002B010BDFFF7CCF80008002090120020BD
:1021000010B50B4A0B4B116882B04FF0FF340191B0
:1021100000219962019811685C6203F11C028842F7
:10212000C3E9072201D102B010BDFFF7B1F800BF2B
:1021300000080020901200200000000000000000B5
:102140002DE9F041184E82B00546306801900C46EA
:1021500017469846FFF744FF05B3FFB1F4B1C5E950
:1021600003781248C3699A68944204D91B68A41A78
:102170009A68A242FAD32B605A686A6015605D6063
:10218000AC609968019D3268091B95424FF0FF349D
:102190009960446206D102B0BDE8F0810448FFF7BF
:1021A000AFFDDCE7FFF774F8000800209012002074
:1021B000F0C0000800000000000000000000000067
:1021C00030B5164D83B004462B680193FFF708FF26
:1021D000ECB1E368BBB12268A0689368019903443D
:1021E0009360D4E900231A6020682B680C4A656864
:1021F000456099424FF000054FF0FF30E5605062B6
:1022000009D103B030BD0748FFF77AFDE3E7054881
:10221000FFF776FDDDE7FFF73BF800BF0008002081
:102220009012002000C10008000000000000000023
:1022300000B50A4A0A4B11681B6083B00020019167
:10224000019912685B609142C3E90433986002D13E
:1022500003B05DF804FBFFF71BF800BF0008002087
:1022600090120020000000000000000000000000AC
:1022700030B5164D83B004462B680193FFF7B0FECE
:10228000ECB194F82030B3B10F2B14D00022A16828
:102290000F4B84F820201B689A688A42FBD2236087
:1022A0005A686260146001992A685C609142204615
:1022B00009D103B030BD0748FFF722FDE6E7054826
:1022C000FFF71EFDDDE7FEF7E3FF00BF000800207B
:1022D0009012002010C10008000000000000000063
:1022E00070B5204D82B02B6801930446202383F300
:1022F000118800F0BDFDFFF7E3FD94F82030072BB7
:1023000011D8DFE803F0161010230A04100AA66A99
:10231000FFF766FEB3680133B360D4E900231A60A7
:10232000D4E900325A604FF0FF33A3622046FFF732
:102330009FFFFFF7E5FD00F0B3FD002383F3118855
:10234000019A2B689A420BD102B070BDA36A002299
:102350001A604FF0FF33A3622046FFF789FFE8E7DA
:10236000FEF796FF000800200000000000000000BB
:10237000F0B5194E194C336883B007460193FFF747
:1023800057FEA569236885F82070142285F823205C
:102390001A68226001215460284683F82010A36146
:1023A000FFF786FE2946A06900F012FDEFF30983CE
:1023B000EA69643B9A4202D90948FFF7A1FC019AF5
:1023C00033689A4206D1A069294603B0BDE8F040BF
:1023D000FDF76EBFFEF75CFF0008002090120020A2
:1023E00020C1000800000000000000000000000004
:1023F000F0B5154C87B0236805930E460746FFF7E6
:1024000017FE731C18D0114D114AAB69314668464E
:10241000FFF796FE3846FFF7ABFFFFF7E1FD039BA2
:1024200013B16846FFF7CCFE059A2368A9699A4262
:10243000886A06D107B0F0BD3846FFF799FF034D13
:10244000F2E7FEF725FF00BF0008002090120020F1
:10245000E122000800000000000000000000000071
:10246000F0B51E4D1E4E2B6883B0044601930F46F7
:10247000FFF7DEFDB069A7628368A2689A421DD9A2
:10248000FFF7F6FE0123074684F82030B461FFF71A
:102490000FFE3946204600F09BFCEFF30983FA69F2
:1024A000643B9A4214D8019A2B689A4214D1394657
:1024B000204603B0BDE8F040FDF7FABE019A2B6854
:1024C0009A4209D1204603B0BDE8F040FFF7D0BEE4
:1024D0000448FFF715FCE6E7FEF7DAFE00080020E7
:1024E0009012002020C10008000000000000000041
:1024F00010B50E490E4B8A69086892F823101C68C3
:102500008068926882B0019449B9904234BF00203B
:102510000120019A1B689A4206D102B010BD904278
:1025200094BF00200120F4E7FEF7B2FE90120020D5
:102530000008002000000000000000000000000073
:1025400070B5184C184E2368A5691A68226054604B
:10255000012283F8202082B01422316885F82320DC
:102560002846A3610191FFF783FE2846FFF7A0FDEF
:102570002946A06900F02CFCEFF30983EA69643B6B
:102580009A4202D90948FFF7BBFB019A33689A4285
:1025900006D1A069294602B0BDE87040FDF788BEAB
:1025A000FEF776FE901200200008002020C10008EF
:1025B00070B51C4D1C4E2A68AC6913682B60012154
:1025C00082B05D60002082F82010AA613268A168A4
:1025D00084F82000019200E01B689A688A42FBD8C8
:1025E00023605A686260204614605C60FFF760FDFB
:1025F0002146A86900F0ECFBEFF30983E269643B34
:102600009A4202D90948FFF77BFB019A33689A4244
:1026100006D1A869214602B0BDE87040FDF748BE6A
:10262000FEF736FE901200200008002020C10008AE
:1026300000B50E4A0E4B9269196892F8232083B0B8
:10264000019142B1019A1B689A420DD103B05DF825
:1026500004EBFFF7ADBF019A1B689A4204D103B0A7
:102660005DF804EBFFF76CBFFEF712FE901200203E
:102670000008002000000000000000000000000032
:10268000F0B51A4A1A4D02610446816083B01423E2
:1026900050692E68616484F82330022700230121E9
:1026A000278484F82210C4E90F3304F16801A36180
:1026B000019604F12C07636204F1500604F1300323
:1026C00060610461C4E90C33E1613046E762546142
:1026D00000F086FA304600F0A3FA019A2B689A427D
:1026E00002D1204603B0F0BDFEF7D2FD90120020CB
:1026F00000080020000000000000000000000000B2
:1027000010B5094B82B01C680194884203D200F8CE
:10271000012B8142FBD1019A1B689A4201D102B080
:1027200010BDFEF7B5FD00BF00080020000000004E
:102730002DE9F043184E83B0346801940546DDF866
:1027400028900C4617469846FFF74AFC15B1B4F599
:10275000BC7F19D21148FFF7D3FAA4F164012944D0
:10276000E960C1F84080EB68019AC3F8449033688F
:10277000E9680B4808669A420CD13946284603B0EE
:10278000BDE8F043FFF77CBF7F2FE3D8B8F1000F1F
:10279000E3D1DFE7FEF77CFD0008002070C10008F0
:1027A000C902000800000000000000000000000056
:1027B0002DE9F04FDFF8A48087B0D8F80040DDF8AD
:1027C0004090059407468A46934600F16806044601
:1027D000FF2504F8015BA642FBD107EB0A05A542E1
:1027E00004D9552604F8016BA542FBD1039320229E
:1027F00082F3118800F00CFBFFF722FB039BCDF85E
:1028000000905A4651463846FFF792FF0021044691
:10281000FFF726FEFFF734FB00F012FB0D4B1A68A2
:102820009A4204D0996993688A689A420BD300232C
:1028300083F31188059AD8F800309A42204606D1D1
:1028400007B0BDE8F08F0448FFF75AFAEFE7FEF74C
:102850001FFD00BF9012002030C1000800080020BA
:1028600030B5184C83B0236801930546202383F3C9
:10287000118800F0CDFAFFF7E3FA15B91248FFF717
:102880003FFA29460820FFF7B3FDFFF7F9FA00F0F9
:10289000D7FA0E4B1A689A4204D0996993688A68ED
:1028A0009A4208D3002383F31188019A23689A423D
:1028B00005D103B030BD0648FFF722FAF2E7FEF774
:1028C000E7FC00BF0008002040C100089012002073
:1028D00030C10008000000000000000000000000FF
:1028E000F0B51C4F83B03B68019304460E4620238D
:1028F00083F31188184D00F08BFAFFF7A1FAA96A4B
:10290000331B0C1B9C4219D3FFF7BAFA00F098FA5C
:102910002B68AB4204D0AA699B6892689A4209D39B
:10292000002383F31188019A3B689A4230460FD105
:1029300003B0F0BD0948FFF7E3F9F1E7741A02D1DB
:102940000748FFF7DDF921460820FFF751FDDBE7D7
:10295000FEF79EFC000800209012002030C1000805
:1029600040C100080000000000000000000000005E
:1029700070B5164B164E9C693268E36AA06282B04D
:1029800004F12C05AB42019207D01A68E2621846A6
:10299000FFF76EFCE36AAB42F7D194F821309B0756
:1029A00005D1D4E904231A61D4E904325A610F2015
:1029B000FFF7DEFC019A33689A4205D1054802B060
:1029C000BDE87040FFF79CB9FEF762FC9012002052
:1029D0000008002080C10008000000000000000086
:1029E00030B50C4C83B0236801930546202383F354
:1029F000118800F00DFAFFF723FA019A23689A4232
:102A000005D1284603B0BDE83040FFF7B1BFFEF75F
:102A10003FFC00BF00080020000000000000000094
:102A2000F0B50D4D0D4E03682A68B76983B00446B2
:102A3000019213B10A48FFF763F927600320BC62D3
:102A4000FFF796FC019A2B68B1699A42886A01D116
:102A500003B0F0BDFEF71CFC00080020901200201F
:102A600090C100080000000000000000000000000D
:102A7000F0B5124D04682B6883B00193B4B194F89B
:102A80002030032B06460F460CD100233360019AF9
:102A90002B68A7629A420FD1204603B0BDE8F040F0
:102AA000FFF7E6BB0648FFF72BF9EEE7019A2B6824
:102AB0009A4201D103B0F0BDFEF7EAFB0008002006
:102AC000A0C100080000000000000000000000009D
:102AD00030B5104A83B01368019381B10E4B019D4C
:102AE0009B69186044685C6023601268436095428B
:102AF0000DD1042003B0BDE83040FFF779BC019947
:102B0000136899424FF0FF3001D103B030BDFEF79A
:102B1000BFFB00BF00080020901200200000000052
:102B200070B5124D04682B6882B0A042019315D095
:102B300023680360586094F82030042B0E4602D0BE
:102B40000B48FFF7DDF8019A2B68A6629A420BD179
:102B5000204602B0BDE87040FFF78ABB019A2B689F
:102B60009A4201D102B070BDFEF792FB000800202E
:102B700050C100080000000000000000000000003C
:102B80002DE9F041DFF850800468D8F8003082B0B9
:102B9000A042019313D00F4F05460E4623682B60C9
:102BA0005D6094F82030042B02D03846FFF7A8F877
:102BB000A6622046FFF75CFB2C68A542EED1019A85
:102BC000D8F800309A4202D102B0BDE8F081FEF799
:102BD0005FFB00BF50C1000800080020000000009B
:102BE00030B50B4B83B01A6801924FF0FF32026090
:102BF00001991A680024002300259142C0E9044588
:102C0000C0E90133C36001D103B030BDFEF740FB22
:102C1000000800200000000000000000000000008C
:102C200000B5084B084A196883B001915168019AB0
:102C30001B6881609A4202D103B05DF804FBFEF785
:102C400027FB00BF00080020001000E0000000008B
:102C5000F0B51449144B0A68846883B00192134A92
:102C60005B68D2F8A864C2681B1BD0E90445013236
:102C70009B1BC26042688360E61845F100079342DF
:102C8000C0E9046709D80268934238BF0360019A1B
:102C90000B689A4203D103B0F0BD4360F7E7FEF73B
:102CA000F7FA00BF00080020001000E0901200209A
:102CB00030B5114D114C2B6889B04FF0FF3107939F
:102CC000002300226846C4F8A834CDE901330393F9
:102CD0000023CDE904230091FFF7A2FF6846FFF728
:102CE000B7FF079A2B680299C4F8A8149A4201D139
:102CF00009B030BDFEF7CCFA000800209012002089
:102D00002DE97048134E144B326883B001925B6812
:102D10008B60D0E902411B1BD0E90445426814EBEB
:102D2000030B45F1000C01319342C0E90231C0E9C7
:102D300004BC0AD80268934238BF0360019A336822
:102D40009A4204D103B0BDE870884360F6E7FEF70D
:102D50009FFA00BF00080020001000E00000000003
:102D600030B50D4D0D4C2B6883B004F59760019381
:102D70000023C4F8B034C4F8B434FFF731FF019A2B
:102D80002B689A4206D104F59A6003B0BDE8304042
:102D9000FFF726BFFEF77CFA000800209012002003
:102DA00000B50949094A0B6883B001930198D2F82C
:102DB000B034096801338842C2F8B03402D103B09C
:102DC0005DF804FBFEF764FA000800209012002072
:102DD00070B50D4C0D4A236882B00193019DD2F865
:102DE000B43424680133A542C2F8B43409D10E4684
:102DF00000F1500106F1500002B0BDE87040FFF74D
:102E00007FBFFEF745FA00BF0008002090120020A7
:102E100000B5084B83B01A680192019A1B689A4268
:102E200005D1054803B05DF804EBFFF7F9BEFEF7E6
:102E30002FFA00BF00080020481700200000000003
:102E400000B5084B83B01A680192019A1B689A4238
:102E500005D1054803B05DF804EBFFF7F9BEFEF7B6
:102E600017FA00BF000800204817002000000000EB
:102E700000B5084B83B01A680192019A1B689A4208
:102E800005D1054803B05DF804EBFFF7C9BEFEF7B6
:102E9000FFF900BF000800206017002000000000BC
:102EA00000B5084B83B01A680192019A1B689A42D8
:102EB00005D1054803B05DF804EBFFF7C9BEFEF786
:102EC000E7F900BF000800206017002000000000A4
:102ED00030B50B4D83B02B680193044650B124608C
:102EE00001992A68646000239142A360236105D19F
:102EF00003B030BD0348FEF703FFF0E7FEF7C8F963
:102F000000080020E0C100080000000000000000F0
:102F1000F0B55D4E5D4B32689D6983B00446019209
:102F2000FFF786F8002C00F08480A0682369002851
:102F300043D0002B40F39780854276D0AA688368FF
:102F40009A4208D990F820308260062B40D0072B97
:102F500073D0002B5DD02746234603E09968AA680A
:102F6000914233D31B689C42F8D12F607B686B6021
:102F700006201D607D60AC62FFF7FAF9A368AB42E2
:102F800002D04348FEF7BCFE2B6CA34202D040485F
:102F9000FEF7B6FE2369012B05D1019A33689A42E8
:102FA0006FD103B0F0BD019A33689A4269D13848B5
:102FB00003B0BDE8F040FEF7A3BE002B58D10133AB
:102FC000A56023612B6CE3602C64E6E71F46CCE729
:102FD000D0E900231A60D0E900325A60876A3B4684
:102FE00003E099688268914247D31B689F42F8D1F9
:102FF00007607B68436018607860836AAA68986895
:1030000083689342A7D290F820308260062B9ED12D
:10301000DEE7D0E90023012180F820101A60D0E912
:1030200000325A60FFF724F995E7236901332361E1
:10303000B3E71748FEF764FE77E7D0E900231A608C
:10304000D0E900325A60876A3B4603E0996882689B
:10305000914214D31B689F42F8D107607B6843609C
:103060001860786077E70A48FEF74AFEA06863E7D1
:103070000748FEF745FE2369A1E71F46B8E71F464C
:10308000EBE7FEF705F900BF0008002090120020D2
:10309000F0C1000800000000000000000000000077
:1030A00030B5154C83B0236801930546202383F384
:1030B0001188FFF7ADFEFEF7C3FE2846FFF728FF95
:1030C000FEF7DEFEFFF7BCFE0C4B1A689A4204D0F6
:1030D000996993688A689A4208D3002383F3118818
:1030E000019A23689A4205D103B030BD0448FEF727
:1030F00007FEF2E7FEF7CCF800080020901200204F
:10310000D0C1000800000000000000000000000026
:103110002DE9F043DFF800813C4FD8F80030BE695C
:1031200083B005460193002864D0202383F31188DF
:10313000FFF76EFEFEF784FE336C002B5ED09B68BB
:10314000B34202D03248FEF7DBFD2B69002B49DD8C
:10315000013B2B615BBB336CAB4202D02C48FEF7CA
:10316000CFFDEB683364FEF763FF2B689D423ED0D2
:10317000D6E910495CB1FEF75BFF23689C4203D09F
:103180009B68994538BF9946E468002CF3D1C6F88E
:1031900008902B6801222A611A682A605560AB608A
:1031A0001A6CEA6018461D640021FFF759F9FEF712
:1031B00067FEFFF745FE3B68BB4204D0BA699B68D7
:1031C00092689A420AD3002383F31188019AD8F8AF
:1031D00000309A4217D103B0BDE8F0830D48FEF7E6
:1031E0008FFDF0E70A48FEF78BFD2B69B0E700235F
:1031F000AB60DCE70648FEF783FD96E70448FEF780
:103200007FFD336C9BE7FEF743F800BF9012002070
:1032100000C20008D0C10008000800200000000023
:1032200070B5184E82B00446336801930D46FEF720
:10323000D7FE0CB3E16B94F8203029430A2BE163ED
:1032400016D00B2B05D0019A33689A4218D102B0E0
:1032500070BDA36A8B43F6D1019A336800219A426C
:10326000A1620DD1204602B0BDE87040FFF700B862
:10327000A36A1942F0D1E6E70348FEF741FDD9E71A
:10328000FEF706F80008002030C200080000000029
:10329000F0B5134F83B006463B6801930D46FEF729
:1032A0009FFEB6B13468A6420DD0E3682B43E360BD
:1032B00015B12269134203D0D4E90101FFF7B0FF31
:1032C0002468A642F1D1019A3B689A4205D103B025
:1032D000F0BD0448FEF714FDE4E7FDF7D9FF00BF99
:1032E0000008002010C200080000000000000000DC
:1032F00070B50C4CC16082B0266801960A4400602B
:10330000019E02612268069D4060C0E90511964257
:103310004FF00001C3618160056201D102B070BD50
:10332000FDF7B6FF000800200000000000000000CC
:1033300070B5164D82B004462B6801930E46FEF719
:103340004FFEFEF74DFED4E905239A42A36816D03E
:103350000133511CA36061611670D4E904329A42B2
:103360000AD220460021FFF7DBFB0020019A2B68E0
:103370009A4209D102B070BDE3686361F1E7002BA6
:10338000E6D06FF00300F1E7FDF782FF00080020B0
:10339000F0B5234F83B03B68019304460E462023CB
:1033A00083F31188FFF734FDFEF74AFDE36943B16B
:1033B0002046984705E031462046FFF789FB051E69
:1033C00010DBFEF70DFEA368002BF4D0A169206985
:1033D0004A1C013B8242A360A26128BFE3680D78CA
:1033E00028BFA361FEF74CFDFFF72AFD0D4B1A68BD
:1033F0009A4204D0996993688A689A4209D3002353
:1034000083F31188019A3B689A42284605D103B09C
:10341000F0BD0548FEF774FCF1E7FDF739FF00BF8A
:10342000000800209012002040C2000800000000A8
:103430002DE9F04FDFF8F490044685B0D9F800008C
:1034400003908A461D46D4F81C809346002A60D01B
:10345000202383F311880193FFF7DAFCFEF7F0FCD9
:103460002F4E0027B8F1000F07D02046C04704E0D8
:1034700029462046FFF72CFB60BBFEF7B1FDA36891
:10348000002BF5D0A269013B511CA161A360137808
:103490000AF8013B2369A2699A4224BFE368A36149
:1034A000FEF7EEFCFFF7CCFC3368B34204D0B26900
:1034B0009B6892689A4228D3002383F311880137CE
:1034C000BB4519D0019B83F31188FFF7A1FCFEF7E0
:1034D000B7FCC7E7FEF7D4FCFFF7B2FC3368B34292
:1034E00007D0B2699B6892689A4202D20D48FEF7F3
:1034F00007FC002383F31188039AD9F800309A421D
:1035000038460AD105B0BDE8F08F0648FEF7F8FB53
:10351000D2E70548FEF7F4FB9AE7FDF7B9FE00BFD6
:103520009012002040C2000850C20008000800208D
:1035300070B50B4D82602E68C16082B0C0E900009A
:1035400001960A44019E02612A68069C9642C0E9DF
:103550000511C0E9073401D102B070BDFDF798FE36
:103560000008002000000000000000000000000033
:103570002DE9F0412E4F82B03B6801930446884606
:103580001646202383F31188FFF742FCFEF758FC10
:1035900005E031462046FFF79BFA051E2DDBFEF7BE
:1035A0001FFDA368002BF4D06269013B511C6161CF
:1035B000A36082F80080D4E904329A4224BFE36811
:1035C0006361E3690BB120469847FEF759FCFFF7AA
:1035D00037FC184B1A689A4204D0996993688A6834
:1035E0009A421ED3002585F31188019A3B689A42BE
:1035F00028461AD102B0BDE8F081FEF741FCFFF782
:103600001FFC0C4B1A689A4207D0996993688A6824
:103610009A4202D20848FEF773FB002383F3118815
:10362000E3E70548FEF76CFBDCE7FDF731FE00BF82
:10363000000800209012002040C200080000000096
:1036400070B5154E82B0044633680193FEF7C8FC8E
:10365000FEF7C6FCD4E905329342A36815D0206971
:10366000511C0133A360A161814215780AD2204622
:103670000021FFF755FA2846019A33689A4209D18A
:1036800002B070BDE368A361F1E7002BE7D06FF0F3
:103690000200F1E7FDF7FCFD00080020000000003B
:1036A0002DE9F04F04463B48D4F81C90006885B0E3
:1036B0000D46039001931646002A61D04FF0200A70
:1036C0008AF31188FFF7A4FBFEF7BAFB4FF000085E
:1036D000314FC346FEF784FCA368002B32D06269E9
:1036E000013B511C6161A3602B781370D4E9043253
:1036F0009A4224BFE36863610135B9F1000F01D03C
:103700002046C847FEF7BCFBFFF79AFB3B68BB426D
:1037100007D0BA699B6892689A4202D21F48FEF7A6
:10372000EFFA8BF31188013E08F101081FD08AF3EC
:103730001188FFF76DFBFEF783FBFEF751FCA368D2
:10374000002BCCD101992046FFF7C2F90028C1D047
:10375000FEF796FBFFF774FB3B68BB4204D0BA69E7
:103760009B6892689A420FD3002383F31188094B18
:10377000039A1B689A4240460AD105B0BDE8F08F13
:103780000748FEF7BDFA99E70448FEF7B9FAEBE7F8
:10379000FDF77EFD000800209012002040C20008C6
:1037A00060C20008000000000000000000000000EF
:1037B00030B50B490B4A0B680B4D0C4C83B022F013
:1037C0000702019301980A4B09682A6023F0070356
:1037D0008842236001D103B030BDFDF759FD00BF21
:1037E0000008002067210020041900200019002093
:1037F00000000220000000000000000000000000A7
:1038000070B51C4E82B0336801930446202383F3C5
:103810001188FFF7FDFAFEF713FBFEF7E1FB164AEE
:10382000164B15681B68E01D20F007005B1B9842D3
:103830009ABF401910600025FEF722FBFFF700FB3E
:103840000F4B1A689A4204D0996993688A689A4221
:1038500009D3002383F31188019A33689A422846DA
:1038600005D102B070BD0748FEF74AFAF1E7FDF74F
:103870000FFD00BF000800200419002000190020DF
:103880009012002080C2000800000000000000002C
:1038900000B50B4B0B481A6883B0019201991A6866
:1038A000094B036091424FF00003C0E9023305D198
:1038B000103003B05DF804EBFFF70ABBFDF7E8FC3E
:1038C000000800200819002001380008000000004E
:1038D00080B50D4A0D4982B000AF13687B604B681C
:1038E00023F001034B60EFF30983683383F3098806
:1038F000002383F3118879681368994202D108374D
:10390000BD4680BDFDF7C4FC0008002030EF00E09C
:10391000B0B5194C82B000AF23687B60202383F3DD
:103920001188164B5B6813F4006308D183F3118888
:103930007A6823689A421DD10837BD46B0BDF1EEC2
:10394000103AEFF309854FF080720D4B45F84C2C7F
:10395000DB6845F8083CA5F1680383F30988FEF7A6
:10396000C7FD18B1074B45F8503CE1E7064B45F859
:10397000503CDDE7FDF78CFC0008002000ED00E086
:1039800030EF00E0E1020008F4020008000000004F
:1039900010B5184C82B02368019301F0C9FF164896
:1039A00003F0E6FA00F0D4F800F00AF900F050F95C
:1039B00000F07EF900F0ACF900F0DAF900F008FA56
:1039C00000F036FA01F084F800F08AFF01F010F9F7
:1039D00001F056F901F0FCF804F0CAFD019A2368E1
:1039E0009A4204D102B0BDE8104001F031B9FDF7B0
:1039F0004FFC00BF00080020E0C6000800000000E7
:103A0000F0B51A4D83B02B68019391420E461446CF
:103A1000074619D38B1A1F2B16D806F01F03581C04
:103A20006209012376098340B24203F1FF3304F0B7
:103A30001F0457F822000BD31840E040019A2B686E
:103A40009A4210D103B0F0BD0948FEF759F9E4E7F6
:103A500057F82610C4F120020B4020FA04F403FAB0
:103A600002F02043EAE7FDF713FC00BF0008002046
:103A700090C20008000000000000000000000000EC
:103A8000F0B51D4E83B033680193054670B37E22B6
:103A90007F212846FFF7B4FF80B1012806D000201F
:103AA000019A33689A4225D103B0F0BD28463022EE
:103AB0004521FFF7A5FF01308002F1E73E224921B1
:103AC0002846FFF79DFF2F22044631212846FFF7A5
:103AD00097FF5022074653212846FFF791FF0134F4
:103AE00002370938BC4004FA00F0D9E70348FEF772
:103AF00007F9CCE7FDF7CCFB00080020B0C20008B6
:103B0000F0B5104D83B02B680193044698B194F83A
:103B1000D63094F8D770019994F8D4602A6894F854
:103B2000D5001B0403EB07633344914203EB0020F1
:103B300005D103B0F0BD0448FEF7E2F8E7E7FDF772
:103B4000A7FB00BF00080020D0C200080000000052
:103B500000B5074B83B01A680192019A1B689A421C
:103B600004D103B05DF804EB01F0A2BFFDF790FBB8
:103B7000000800200000000000000000000000001D
:103B800000B50C4B83B01A680192012202700199B2
:103B90001A6800239142C0E90133C0E9033343614D
:103BA00005D1183003B05DF804EBFFF791B9FDF7CC
:103BB0006FFB00BF000800200000000000000000B4
:103BC00000B5074B83B01A680192019A1B689A42AC
:103BD00004D103B05DF804EB02F012BDFDF758FB11
:103BE00000080020000000000000000000000000AD
:103BF00030B5134B83B01A68019201220270019C08
:103C00001968002200F1180300F11C05426083616D
:103C100000F1200200F12403C561026200F12805D1
:103C200000F1080243628C4200F110038562C0E992
:103C30000222C0E9043301D103B030BDFDF728FBF7
:103C4000000800200000000000000000000000004C
:103C500000B5074B83B01A680192019A1B689A421B
:103C600004D103B05DF804EB03F062B9FDF710FB7B
:103C7000000800200000000000000000000000001C
:103C800000B50A4B83B01A680192012202700199B3
:103C90001A6800239142C0E9043305D1183003B0FB
:103CA0005DF804EBFFF714B9FDF7F2FA0008002005
:103CB00000B5074B83B01A680192019A1B689A42BB
:103CC00004D103B05DF804EB02F0BABCFDF7E0FAF2
:103CD00000080020000000000000000000000000BC
:103CE00000B5084B83B01A68019201220270019A54
:103CF0001B6800219A42416002D103B05DF804FBC9
:103D0000FDF7C6FA000800200000000000000000D7
:103D100000B5074B83B01A680192019A1B689A425A
:103D200004D103B05DF804EB04F002B8FDF7B0FA7B
:103D3000000800200000000000000000000000005B
:103D400000B5084B83B01A68019201220270019AF3
:103D50001B6800219A42416002D103B05DF804FB68
:103D6000FDF796FA000800200000000000000000A7
:103D700000B5074B83B01A680192019A1B689A42FA
:103D800004D103B05DF804EB03F00ABBFDF780FA41
:103D900000080020000000000000000000000000FB
:103DA00000B50A4B83B01A68019201220270019A91
:103DB0001B6800219A42416005D10C3003B05DF8C8
:103DC00004EBFFF785B8FDF763FA00BF0008002099
:103DD00000B5074B83B01A680192019A1B689A429A
:103DE00004D103B05DF804EB03F0E2BEFDF750FA36
:103DF000000800200000000000000000000000009B
:103E000000B5084B83B01A68019201220270019A32
:103E10001B6800219A42416002D103B05DF804FBA7
:103E2000FDF736FA00080020000000000000000046
:103E300000B5074B83B01A680192019A1B689A4239
:103E400004D103B05DF804EB04F05AB8FDF720FA92
:103E5000000800200000000000000000000000003A
:103E600000B5094B83B01A680192012202700199D2
:103E70001A68002391424360C360037402D103B007
:103E80005DF804FBFDF704FA0008002000000000C4
:103E900070B5214E82B0336801930D460446002868
:103EA00033D0002931D0202383F31188FEF7B0FFEF
:103EB000FDF7C6FF2378013B012B02D91748FDF718
:103EC0001FFF65606B68A360204604F059F800226C
:103ED0000223E2602370FDF7D3FFFEF7B1FF104B22
:103EE0001A689A4204D0996993688A689A4208D3FA
:103EF000002383F31188019A33689A4209D102B0F2
:103F000070BD0848FDF7FCFEF2E70448FDF7F8FE37
:103F1000C9E7FDF7BDF900BF0008002000C3000895
:103F200090120020F0C20008000000000000000015
:103F300070B51C4E82B0336801930C46054650B3F1
:103F4000202383F31188FEF763FFFDF779FF2B78B9
:103F5000022B02D01448FDF7D3FEAB69AC60013CE4
:103F6000DC62FDF78DFFFEF76BFF104B1A689A427B
:103F700004D0996993688A689A4208D3002383F32E
:103F80001188019A33689A4209D102B070BD08487D
:103F9000FDF7B6FEF2E70448FDF7B2FED0E7FDF705
:103FA00077F900BF0008002010C30008901200201D
:103FB000F0C2000800000000000000000000000047
:103FC000F0B5214E83B0336801930D461746044681
:103FD00078B3037C8B422CD9202383F31188FEF71E
:103FE00017FFFDF72DFF2378022B02D01748FDF7AE
:103FF00087FEE3680122AA401343E3603A4629465C
:10400000204604F0A5F8FDF73BFFFEF719FF104B23
:104010001A689A4204D0996993688A689A420CD3C4
:10402000002383F31188019A33689A4209D103B0BF
:10403000F0BD0648FDF764FECEE70648FDF760FEDA
:10404000EEE7FDF725F900BF0008002020C30008B7
:1040500090120020F0C200080000000000000000E4
:1040600070B5204E82B0336801930D46044678B394
:10407000037C8B422CD9202383F31188FEF7C8FEE2
:10408000FDF7DEFE2378022B02D01748FDF738FE3D
:10409000E3680122AA4023EA0203E360294620469E
:1040A00004F06EF8FDF7ECFEFEF7CAFE0F4B1A683F
:1040B0009A4204D0996993688A689A420CD3002383
:1040C00083F31188019A33689A4209D102B070BD16
:1040D0000548FDF715FECEE70548FDF711FEEEE7B2
:1040E000FDF7D6F80008002040C300089012002019
:1040F000F0C2000800000000000000000000000006
:1041000030B51E4D83B02B680193044680B3202345
:1041100083F31188FEF77CFEFDF792FE2378022BD5
:1041200002D01748FDF7ECFD63689B68E3B12046B9
:1041300004F046F8FDF7A4FEFEF782FE114B1A6864
:104140009A4204D0996993688A689A4208D30023F6
:1041500083F31188019A2B689A420DD103B030BDC8
:104160000948FDF7CDFDF2E70548FDF7C9FDDEE79B
:104170000348FDF7C5FDCAE7FDF78AF800080020EF
:1041800060C3000890120020F0C200080000000088
:1041900070B5294E82B0336801930D46044600285D
:1041A00032D0037C8B422FD9202383F31188FEF772
:1041B0002FFEFDF745FE2378022B02D01F48FDF7A6
:1041C0009FFDE368EB40DB0726D5636803EBC5037F
:1041D0001B6953B32946204604F012F8FDF750FE40
:1041E000FEF72EFE164B1A689A4204D0996993681E
:1041F0008A689A420CD3002383F31188019A3368AA
:104200009A4216D102B070BD0C48FDF779FDCBE79C
:104210000C48FDF775FDEEE70848FDF771FD636892
:1042200003EBC5031B69002BD4D10448FDF768FDDF
:10423000D0E7FDF72DF800BF0008002080C300087C
:1042400090120020F0C200080000000000000000F2
:1042500070B5104D82B02B6801930E46044650B1E4
:1042600049B12379052B0CD00120019A2B689A4281
:104270000ED102B070BD0848FDF742FD2379052B31
:10428000F2D1A36A73604FF4007333600020ECE74F
:10429000FCF7FEFF0008002010C40008000000002A
:1042A0002DE9F047DFF89C8386B002AFD8F80030E4
:1042B000FB600446002800F019812379022B01D00D
:1042C000052B2BD103232371204602F051FA002243
:1042D0001146204602F0C4FA07F108034FF4D572E4
:1042E0000821204602F004FBE0B9BB680122C3F3B9
:1042F00003239342226300F0FD80204602F070FA0F
:10430000022323710125FA68D8F800309A42284622
:1043100040F046811037BD46BDE8F087C048FDF744
:10432000EFFCCFE707F1080300223721204602F017
:10433000DFFA002840F0BE80BB68BA4A1A40002A63
:1043400040F0B88022631146204602F089FA266BBD
:1043500006F00F03022B00F0AF80B34EB34ADFF834
:10436000C492012B18BF1646642504E0013DC4D059
:104370000A20FEF775FA07F10803002237212046CC
:1043800002F0B6FA0028B8D1BB6813EA090FB4D11D
:1043900007F1080332462921204602F081FA00285D
:1043A000ABD1BB68002BE1DA5B0003D5236B43F094
:1043B0001003236304F1080300220221204602F0C7
:1043C0008FFB002899D1024604F1380303212046CF
:1043D00002F08EFA002890D104F118052B46A26B4A
:1043E0000921204602F07CFB002886D13B1DA26BF0
:1043F0000721204602F07CFA824600287FF47DAF38
:10440000236B03F00F03022B00F097806E467E2291
:1044100090B07F212846FFF7F3FA0DF10809002834
:1044200079D10146B546204602F0C2F9236B03F06C
:104430000F03022B00F096802846FFF721FBA062B5
:104440003B1D4FF400721021204602F051FA054640
:1044500000287FF452AF7B68724E33427FF44DAF39
:10446000236B03F00F03012B40F2B280022B7FF489
:1044700044AFE36A1A79012A00F0A88017D3022A10
:1044800040F0E2806A4E1979204602F0C1F907F146
:10449000080332460621204602F02AFA00287FF45B
:1044A0002CAFBA685F4B1340002B7FF426AF052377
:1044B000237128E7022323635E4E642505E0013D56
:1044C0003FF41BAF0A20FEF7CBF907F10803324691
:1044D0000121204602F0E4F900287FF40EAFBB680A
:1044E000002BECDA5B007FF565AF5FE74C48FDF72A
:1044F00007FCE2E6024607F108033721204602F0F6
:10450000F7F900287FF4F9AEBA68464B1340002B48
:104510007FF4F3AE1BE7CDF800A006234022494606
:10452000204602F00DFB00284ED199F80D3013F013
:10453000020337D11946B54675E7E36A1B687BB1BC
:1045400007F108033C4A0621204602F0D1F938B9A8
:10455000BB6834491940B1FA81F1490963E7B546AE
:10456000002160E77E227F212846FFF749FA0128D3
:104570007FF662AFE36A1D68002D3FF4BEAE0023F4
:1045800000934FF4007208232946204602F0D8FA1F
:1045900000287FF4B2AE2846FFF7B2FAA0624FE7D8
:1045A000FCF776FE254B0093402206234946204621
:1045B00002F0C6FA40B999F8103003F00F030F2B40
:1045C000CDD0B54601212EE7B54696E61C4E5AE7FA
:1045D000E36A197900293FF46AAF01297FF48DAEAF
:1045E000204602F015F907F10803A26B3721204697
:1045F00002F07EF900287FF480AEBB6833427FF47E
:104600007CAE07F1080302220621204602F070F971
:1046100000287FF472AEBB6833423FF448AF6CE6CB
:10462000C0C3000808E0FFFD000010C000001080BB
:104630000002B7030080FFC00001B903F1FFFF8053
:104640000001B703000800200248034EFDF758FBA5
:10465000E36A18E7A0C300080000B70300000000E9
:104660002DE9F041194D82B02C6801940F46904617
:104670001E460446C0B1BAB1B3B12379052B02D0AE
:104680001348FDF73DFB781EA36A304498420FD9CA
:10469000636B43F0800363630120019A2B689A42A5
:1046A00011D102B0BDE8F0810948FDF729FBE4E72C
:1046B00006203346207142463946204602F0A0FBD0
:1046C00005232371E9E7FCF7E3FD00BF00080020A4
:1046D000E0C300080000000000000000000000002F
:1046E0002DE9F041194D82B02C6801940F46904697
:1046F0001E460446C0B1BAB1B3B12379052B02D02E
:104700001348FDF7FDFA781EA36A304498420FD98A
:10471000636B43F0800363630120019A2B689A4224
:1047200011D102B0BDE8F0810948FDF7E9FAE4E7EC
:1047300007203346207142463946204602F0A0FB4E
:1047400005232371E9E7FCF7A3FD00BF0008002063
:10475000F0C300080000000000000000000000009E
:1047600070B50E4D82B02B680193044680B1267956
:10477000052E06D00120019A2B689A420CD102B076
:1047800070BD08232371204602F0BAFB2671F2E7C0
:104790000348FDF7B5FAEAE7FCF77AFD00080020C8
:1047A00000C400080000000000000000000000003D
:1047B00070B5124D124E2B6882B0044601936B46C1
:1047C000A26B0D21204602F093F878B9009B33428A
:1047D0000BD1C3F34323042B08D04FF0010005D3C2
:1047E000072B03D8FEF73CF8E9E70120019A2B6874
:1047F0009A4201D102B070BDFCF74AFD00080020CA
:1048000008E0FFFD000000000000000000000000C4
:1048100070B52D4E82B033680193044600284CD009
:10482000202383F31188FEF7F3FAFDF709FB2379C0
:10483000022B29D0052B21D104232371FDF720FB66
:10484000FEF7FEFA214B1A689A4204D099699368E0
:104850008A689A4229D3002383F311882046FFF700
:10486000A7FF0546204601F0BBFF02232371019AF2
:1048700033689A42284624D102B070BD1448FDF72F
:104880003FFA2379022BD7D1FDF7FAFAFEF7D8FACF
:104890000E4B1A689A4204D0996993688A689A42C2
:1048A00007D3002585F31188E1E70A48FDF728FAC8
:1048B000D1E70848FDF724FAF3E70548FDF720FAA9
:1048C000AEE7FCF7E5FC00BF0008002090120020D6
:1048D000D0C3000820C40008000000000000000051
:1048E00000B5074B83B01A680192019A1B689A427F
:1048F00004D103B05DF804EB01F01ABFFCF7C8FC6B
:10490000000800200000000000000000000000007F
:1049100010B50A4B0A4A1968026082B0012401915D
:1049200001991A680471002391424363C0E90A3374
:1049300001D102B010BDFCF7ABFC00BF00080020A5
:1049400030C400080000000000000000000000006B
:1049500030B5084C83B025680195019D2468A542B7
:1049600005D10C3003B0BDE83040FEF761BDFCF767
:104970008FFC00BF000800200000000000000000C5
:1049800010B5094B82B01C680194019C1B689C42C5
:1049900007D10C304FF0FF3302B0BDE81040FEF7F6
:1049A00047BDFCF775FC00BF0008002000000000B8
:1049B00030B5084C83B025680195019D2468A54257
:1049C00005D1303003B0BDE83040FEF769BEFCF7DA
:1049D0005FFC00BF00080020000000000000000095
:1049E00010B5094B82B01C680194019C1B689C4265
:1049F00007D130304FF0FF3302B0BDE81040FEF772
:104A00004FBEFCF745FC00BF00080020000000007E
:104A100000B5084B83B01A680192019A1B689A424C
:104A200005D10C3003B05DF804EBFEF7B1BCFCF728
:104A30002FFC00BF00080020000000000000000064
:104A400000B5094B83B01A680192019A1B689A421B
:104A500007D10C304FF0FF3103B05DF804EBFEF7E7
:104A600097BCFCF715FC00BF000800200000000008
:104A700010B5084B82B01C680194019C1B689C42D5
:104A800005D1303002B0BDE81040FEF771BDFCF733
:104A9000FFFB00BF00080020000000000000000035
:104AA00000B5094B83B01A680192019A1B689A42BB
:104AB00007D130304FF0FF3203B05DF804EBFEF762
:104AC00057BDFCF7E5FB00BF000800200000000018
:104AD00000B5074B83B01A680192019A1B689A428D
:104AE00004D103B05DF804EB03F0DABCFCF7D0FBB3
:104AF000000800200000000000000000000000008E
:104B0000F0B5144D144B2F68044685B040F8043BB3
:104B10004FF0010C00940B461646606084F808C004
:104B200004F1540104F10C0010220397FEF7E0FB9E
:104B300033461022009404F1640104F13000FEF7C2
:104B4000F7FC039A2B689A4201D105B0F0BDFCF73F
:104B50009FFB00BF0008002060C4000800000000A8
:104B600070B5174D82B004462B6801930E46FDF7D1
:104B700037FAF4B1FDF734FA636963B1314604F1F1
:104B80000C00FEF7D5FB0028019A2B6808DB9A423F
:104B900013D102B070BD04216018FEF779FBEDE778
:104BA0009A420AD1201D802102B0BDE87040FEF774
:104BB0006FBB0448FDF7A4F8DCE7FCF769FB00BF16
:104BC0000008002050C400080000000000000000A1
:104BD00000B5064B83B01A680192019A1B689A428D
:104BE00002D103B05DF804FBFCF752FB0008002083
:104BF00000B5074B83B01A680192019A1B689A426C
:104C000004D103B05DF804EB02F0FABFFCF740FBFF
:104C1000000800200000000000000000000000006C
:104C200000B50A4B83B01A68019201220270019903
:104C30001A6800239142C0E9013305D10C3003B05A
:104C40005DF804EBFEF744B9FCF722FB00080020F6
:104C500000B5074B83B01A680192019A1B689A420B
:104C600004D103B05DF804EB03F012BBFCF710FBBA
:104C7000000800200000000000000000000000000C
:104C800000B5074B83B01A680192019A1B689A42DB
:104C900004D103B05DF804EB02F0AABBFCF7F8FA0C
:104CA00000080020000000000000000000000000DC
:104CB00000B50C4B83B01A68019201220270019971
:104CC0001A6800239142C36183620362C362436234
:104CD0000363C0E9013302D103B05DF804FBFCF7C4
:104CE000D7FA00BF0008002000000000000000000C
:104CF000F0B5124D83B004462B6801930E46FDF7C4
:104D00006FF9A4B1012000FA06F362899BB212EA9E
:104D1000030706D1134320466381314602F080FE2B
:104D20003846019A2B689A4205D103B0F0BD044879
:104D3000FCF7E6FFE6E7FCF7ABFA00BF000800204F
:104D400080C4000800000000000000000000000017
:104D5000F0B5124D83B004462B6801930E46FDF763
:104D60003FF9A4B1012000FA06F322899BB212EAAE
:104D7000030706D1134320462381314602F070FE1B
:104D80003846019A2B689A4205D103B0F0BD044819
:104D9000FCF7B6FFE6E7FCF77BFA00BF000800204F
:104DA000A0C4000800000000000000000000000097
:104DB00010B50D4A82B01168019102210170019C69
:104DC000116800228C42C264C0E90222C0E90422B8
:104DD000826180F8342004D102B0BDE8104002F0B6
:104DE00037BBFCF755FA00BF0008002000000000A8
:104DF000F0B5C34D83B0044600222B6880F8342000
:104E000000F14402019302F0FBFB63689B68002BF6
:104E100036D02046984798B3E16B94F8443094F824
:104E20004B0094F84A2042EA00228A422CBF0A46EC
:104E3000E2631806E16800F1A680002A00F0848091
:104E4000042384F834308B69A16BD96000265A6042
:104E50001E709E603146204602F0EAFB202383F359
:104E60001188FEF705F8FDF72BF831462046FFF7CD
:104E70003FFFFDF745F8FEF713F886F3118816E0BB
:104E800094F8443013F06006184617D000212046ED
:104E900002F02EFE0021204602F00AFE63681B6825
:104EA00013B1052120469847062384F83430019A2F
:104EB0002B689A4240F03A8103B0F0BD94F8451057
:104EC00003F07F0242EA0122B2F5407F00F0058143
:104ED00017D9B2F5C06F00F0C68040F28A80B2F5F3
:104EE000106F64D040F602418A4200F0D880B2F5DB
:104EF000006FCBD104F14F0201212664C4E90E21D9
:104F00008DE7022A00F0D28040F29280B2F5807FD5
:104F100060D0B2F5817FB9D194F84630002BB5D17D
:104F200094F8483013F00F0107D01F06204600F117
:104F3000F38002F0FDFD94F844000023C4E90E3331
:104F400023640306E16829D4052384F834304B69CF
:104F500000261E70DE605E609E603146204602F0D4
:104F600007FC202383F31188FDF782FFFCF7A8FFDD
:104F700031462046FFF7ECFEFCF7C2FFFDF790FF3D
:104F800086F3118893E74AB1012384F834304B69E2
:104F9000A16BD96000265A601E70DDE7032384F8F8
:104FA00034308B6900261E70DE605E6051E794F835
:104FB000463084F84F30002B40F09E80032323704E
:104FC00063681B68002BB8D020460221984794F8EC
:104FD0004400B2E794F84630012B7FF457AFB4F8A1
:104FE0004C30A66323F00203C4E90F66A4F84C30EA
:104FF000A7E740F202339A4222D0B2F5A06F7FF4C5
:1050000045AFB4F84430B3F5A06F96D194F846306C
:1050100084F84E30204602F093FA63681B6813B19F
:10502000012120469847032394F84400237084E725
:1050300092BB04F14C0002212264C4E90E01EEE6A9
:1050400094F84630002B7FF421AF94F8483013F0E9
:105050000F013FF472AF1E06204662D402F028FD15
:1050600094F8440069E794F84900616894F848307E
:105070004F6894F8462094F8471043EA00232046EE
:10508000B84700283FF402AF4368A363016894F86F
:105090004430C4E90F16C2E6012A7FF4F7AE194A7C
:1050A000A26302210022C4E90F12B8E694F8483046
:1050B00003F00F011B06204628D402F061FA0128F4
:1050C00028D002287FF4E2AE0F4BA3630221002315
:1050D000C4E90F1394F84430A1E694F84630012B4C
:1050E0007FF4D4AEB4F84C30A66343F00203C4E9B5
:1050F0000F66A4F84C3024E70423237060E700BF58
:105100000008002000C50008E0C4000802F058FABA
:105110000128D6D1064BD8E702F02AFD94F84400C6
:105120000BE702F0E5FC94F8440006E7FCF7B0F862
:10513000F0C40008000000000000000000000000B3
:1051400070B5454D90F834302A6882B0044601921B
:10515000062B57D8DFE803F004255404041E07008B
:105160003E48FCF7CDFD0021204602F0C1FC0021A5
:10517000204602F09DFC63681B6813B105212046A0
:105180009847062384F83430019A2B689A4261D1FB
:1051900002B070BD036C03B19847002384F834302B
:1051A000F2E790F84B0094F84A20E16BE36842EA9A
:1051B0000022914205D21A8AB1FBF2F602FB1616C2
:1051C00056B3032284F834209B6900261E70DE60EB
:1051D000C3E901663146204602F02AFA202383F310
:1051E0001188FDF745FEFCF76BFE31462046FFF7C0
:1051F0007FFDFCF785FEFDF753FE86F31188C3E7BC
:10520000C368DEE7019A2B689A4223D1134802B0A3
:10521000BDE87040FCF774BD5B6931461E70DE600E
:10522000C3E90166204602F0A3FA202383F3118824
:10523000FDF71EFEFCF744FE31462046FFF788FDD1
:10524000FCF75EFEFDF72CFE86F31188022384F83E
:10525000343099E7FCF71CF800080020C0C40008AF
:1052600070B5304D90F834302A6882B0044601920F
:10527000062B4AD8DFE803F00404043D1E040700AF
:105280002948FCF73DFD0021204602F031FC0021B9
:10529000204602F00DFC63681B6813B1052120460F
:1052A0009847062384F83430019A2B689A4236D105
:1052B00002B070BDC368052280F834205B69002607
:1052C0001E70DE60C3E90166314602F051FA202308
:1052D00083F31188FDF7CCFDFCF7F2FD3146204643
:1052E000FFF736FDFCF70CFEFDF7DAFD86F31188BB
:1052F000DAE7C3689B699B68002BD5D1036C03B1C7
:105300009847002384F83430CEE7019A2B689A42FC
:1053100005D1054802B0BDE87040FCF7F1BCFBF7D1
:10532000B7FF00BF00080020D0C400080000000044
:1053300030B54309104D83B09B002A68019200F1FB
:10534000604403F1604303F561430122090104F560
:10535000614400F01F0002FA00F0C9B284F80013A3
:10536000C3F880011860019A2B689A4201D103B0FA
:1053700030BDFBF78DFF00BF0008002000000000DB
:1053800070B50D4E82B0336801930C2804460D466B
:1053900002D90A48FCF7B4FC04F1604000F56D4006
:1053A0002D01EDB20576019A33689A4201D102B01F
:1053B00070BDFBF76DFF00BF0008002010C500089E
:1053C00010B50F4C82B023680193FDF7E9FCFCF7A0
:1053D000B7FD0C4B0C4A196801F03D019960136848
:1053E0000BB150689847FCF7D3FD019A23689A42A5
:1053F00004D102B0BDE81040FEF78ABAFBF748FFBF
:105400000008002000600240301900200000000069
:1054100030B5104C83B023680193FDF7C1FCFCF755
:105420008FFD0D4B0D4819688268890901F03D0117
:105430008D019D600AB1C0689047FCF7A9FD019AF3
:1054400023689A4204D103B0BDE83040FEF760BA49
:10545000FBF71EFF0008002000600240301900200A
:1054600030B5104C83B023680193FDF799FCFCF72D
:1054700067FD0D4B0D4819680269090C01F03D01EB
:105480000D049D600AB140699047FCF781FD019AC7
:1054900023689A4204D103B0BDE83040FEF738BA21
:1054A000FBF7F6FE000800200060024030190020E3
:1054B00030B5104C83B023680193FDF771FCFCF705
:1054C0003FFD0D4B0D4819688269890D01F03D01C2
:1054D0008D059D600AB1C0699047FCF759FD019A9E
:1054E00023689A4204D103B0BDE83040FEF710BAF9
:1054F000FBF7CEFE000800200060024030190020BB
:1055000010B50F4C82B023680193FDF749FCFCF7FE
:1055100017FD0C4B0C485968026A01F03D01D96037
:105520000AB1406A9047FCF733FD019A23689A421A
:1055300004D102B0BDE81040FEF7EAB9FBF7A8FEBF
:105540000008002000600240301900200000000028
:1055500030B5104C83B023680193FDF721FCFCF7B4
:10556000EFFC0D4B0D485968826A890901F03D0135
:105570008D01DD600AB1C06A9047FCF709FD019A10
:1055800023689A4204D103B0BDE83040FEF7C0B9A9
:10559000FBF77EFE0008002000600240301900206A
:1055A00030B5104C83B023680193FDF7F9FBFCF78D
:1055B000C7FC0D4B0D485968026B090C01F03D0109
:1055C0000D04DD600AB1406B9047FCF7E1FC019AE5
:1055D00023689A4204D103B0BDE83040FEF798B981
:1055E000FBF756FE00080020006002403019002042
:1055F00030B5104C83B023680193FDF7D1FBFCF765
:105600009FFC0D4B0D485968826B890D01F03D01DF
:105610008D05DD600AB1C06B9047FCF7B9FC019ABB
:1056200023689A4204D103B0BDE83040FEF770B958
:10563000FBF72EFE00080020006002403019002019
:1056400010B50F4C82B023680193FDF7A9FBFCF75E
:1056500077FC0C4B0C481968026C01F03D01996015
:105660000AB1406C9047FCF793FC019A23689A4278
:1056700004D102B0BDE81040FEF74AB9FBF708FEBE
:1056800000080020006402403019002000000000E3
:1056900030B5104C83B023680193FDF781FBFCF714
:1056A0004FFC0D4B0D481968826C890901F03D01D2
:1056B0008D019D600AB1C06C9047FCF769FC019AAE
:1056C00023689A4204D103B0BDE83040FEF720B908
:1056D000FBF7DEFD000800200064024030190020C6
:1056E00030B5104C83B023680193FDF759FBFCF7EC
:1056F00027FC0D4B0D481968026D090C01F03D01A6
:105700000D049D600AB1406D9047FCF741FC019A81
:1057100023689A4204D103B0BDE83040FEF7F8B8E0
:10572000FBF7B6FD0008002000640240301900209D
:1057300030B5104C83B023680193FDF731FBFCF7C3
:10574000FFFB0D4B0D481968826D890D01F03D017D
:105750008D059D600AB1C06D9047FCF719FC019A58
:1057600023689A4204D103B0BDE83040FEF7D0B8B8
:10577000FBF78EFD00080020006402403019002075
:1057800010B50F4C82B023680193FDF709FBFCF7BD
:10579000D7FB0C4B0C485968026E01F03D01D960F3
:1057A0000AB1406E9047FCF7F3FB019A23689A42D6
:1057B00004D102B0BDE81040FEF7AAB8FBF768FDBF
:1057C00000080020006402403019002000000000A2
:1057D00030B5104C83B023680193FDF7E1FAFCF774
:1057E000AFFB0D4B0D485968826E890901F03D01F0
:1057F0008D01DD600AB1C06E9047FCF7C9FB019ACC
:1058000023689A4204D103B0BDE83040FEF780B867
:10581000FBF73EFD00080020006402403019002024
:1058200030B5104C83B023680193FDF7B9FAFCF74B
:1058300087FB0D4B0D485968026F090C01F03D01C3
:105840000D04DD600AB1406F9047FCF7A1FB019A9F
:1058500023689A4204D103B0BDE83040FEF758B83F
:10586000FBF716FD000800200064024030190020FC
:1058700030B5104C83B023680193FDF791FAFCF723
:105880005FFB0D4B0D485968826F890D01F03D019A
:105890008D05DD600AB1C06F9047FCF779FB019A76
:1058A00023689A4204D103B0BDE83040FEF730B817
:1058B000FBF7EEFC000800200064024030190020D5
:1058C00070B5134D134E2B68134A1448144C82B014
:1058D0000021019331600B4601E052F80C0C01608D
:1058E00044F833100133102B02F10C02F5D10D4AAC
:1058F0000D494FF0FF338B60CB609360D360019A0A
:105900002B689A4201D102B070BDFBF7C1FC00BF09
:1059100000080020B01900203CC5000810600240BB
:1059200030190020006402400060024000000000C6
:1059300030B51C4C1C4B22681C4D83B04FF0FF311E
:1059400001920022186919611A61586959615A61F6
:10595000186A60F0805018621A62586A59625A6276
:10596000196C41F080511964296841F480712960F3
:10597000196F01F44071B1F5007F03D04FF480310D
:1059800019671A67094A536823F400735360019A30
:1059900023689A4204D103B0BDE83040FFF790BFBE
:1059A000FBF776FC00080020003802400070004041
:1059B00010B53649364B0868364A82B04FF08054ED
:1059C00001904FF440401C6410601A6842F00102DC
:1059D0001A601A689007FCD598682D4A20F00300D9
:1059E000986098689860936813F00C03FBD1146872
:1059F000274804F0F90414609360136843F4A0236B
:105A0000136003689A03FCD5436F214A43F00103F6
:105A10004367536F9B07FCD51F4B536013681D48AA
:105A200043F08073136043685C04FCD5184A136824
:105A30009801FCD5194BC2F884301368144843F020
:105A40008063136003681B01FCD5154B154A826007
:105A500040F205721A6083680D4A43F002038360C6
:105A6000936803F00C03082BFAD1536C43F4804382
:105A70005364536E43F480435366019A0B689A4211
:105A800001D102B010BDFBF703FC00BF00080020ED
:105A90000038024000700040185440070030006099
:105AA000003C0240009408380000000000000000A4
:105AB0002DE9F041194FDFF88C80194ED8F80030ED
:105AC000184C194D82B038460193FEF759F8174B20
:105AD000FB623046164B7B633C63FEF751F8154A78
