:020000040800F2
:1000000000040020C101000811220008112200088C
:10001000011A00081122000811220008112200080C
:10002000112200081122000811220008C142000814
:10003000112200081122000811220008A1950008D1
:1000400011220008516F0008E170000831710008AA
:100050001122000811220008916C0008E16C0008D0
:10006000316D0008816D0008D16D0008615F0008E6
:10007000B15F00080160000851600008A16000083D
:10008000F160000841610008D1690008D1720008E0
:1000900041730008F1730008A1740008216E000884
:1000A0001122000811220008919000081122000876
:1000B000A1910008E19100082192000861820008E6
:1000C000A183000811220008112200081122000853
:1000D0001122000811220008112200086196000870
:1000E000B16E0008A16F0008F16F0008112200082E
:1000F0001122000811220008112200089161000855
:1001000011220008317600086192000811220008CF
:100110001122000811220008519000081122000845
:10012000E16100083162000881620008D1620008C4
:100130002163000811220008417000081122000804
:10014000112200081122000811220008918C0008D9
:1001500071630008C16300081164000811220008DF
:1001600011220008112200081122000811220008A3
:100170009170000811220008F116000811220008F1
:100180001122000811220008112200081122000883
:100190001122000811220008112200081122000873
:1001A0001122000811220008112200081122000863
:1001B0001122000811220008112200081122000853
:1001C00072B62E4880F3098840F20000CCF200009D
:1001D0004EF63471CEF20001086040F20000C0F229
:1001E000F0004EF68851CEF2000108604FF000009A
:1001F000E1EE100A4EF63C71CEF2000108600620D6
:1002000080F31488BFF36F8F09F072FB4FF0553005
:100210001B491C4A91423CBF41F8040BFAE71A49BA
:10022000164A91423CBF41F8040BFAE71749184AB5
:10023000184B9A423EBF51F8040B42F8040BF8E702
:1002400000201549154A91423CBF41F8040BFAE7DA
:1002500001F0C6FF124C134DAC4203DA54F8041BF4
:100260008847F9E701F0B4F90F4C104DAC4203DABE
:1002700054F8041B8847F9E701F0C2BF00080020CA
:1002800000000020000400200004002058E60008C0
:1002900000080020F4110020F8110020F0240020B4
:1002A000C0010008C0010008C0010008C00100082A
:1002B0002DE9F04F2DED108AC1F80CD0D0F80CD0FC
:1002C000BDEC108ABDE8F08F02F0E2F803F0A0F870
:1002D000002383F311882846A047002002F068FE1F
:1002E00003F07EF802F0B4F802F0D2FC02F0D0F88D
:1002F00003F08EF800DFFEE70000000000000000C1
:1003000081F0004102E000BF83F0004330B54FEAC6
:1003100041044FEA430594EA050F08BF90EA020F33
:100320001FBF54EA000C55EA020C7FEA645C7FEAC6
:10033000655C00F0E2804FEA5454D4EB5555B8BFE9
:100340006D420CDD2C4480EA020281EA030382EA5A
:10035000000083EA010180EA020281EA0303362DEC
:1003600088BF30BD11F0004F4FEA01314FF4801CBF
:100370004CEA113102D0404261EB410113F0004FD1
:100380004FEA03334CEA133302D0524263EB430388
:1003900094EA050F00F0A780A4F10104D5F1200E26
:1003A0000DDB02FA0EFC22FA05F2801841F1000181
:1003B00003FA0EF2801843FA05F359410EE0A5F155
:1003C00020050EF1200E012A03FA0EFC28BF4CF086
:1003D000020C43FA05F3C01851EBE37101F000453C
:1003E00007D54FF0000EDCF1000C7EEB00006EEB49
:1003F0000101B1F5801F1BD3B1F5001F0CD34908D3
:100400005FEA30004FEA3C0C04F101044FEA445229
:1004100012F5800F80F09A80BCF1004F08BF5FEAB0
:10042000500C50F1000041EB045141EA050130BD90
:100430005FEA4C0C404141EB010111F4801FA4F133
:100440000104E9D191F0000F04BF01460020B1FA88
:1004500081F308BF2033A3F10B03B3F120020CDAC0
:100460000C3208DD02F1140CC2F10C0201FA0CF09E
:1004700021FA02F10CE002F11402D8BFC2F1200C03
:1004800001FA02F120FA0CFCDCBF41EA0C019040B9
:10049000E41AA2BF01EB0451294330BD6FEA040402
:1004A0001F3C1CDA0C340EDC04F11404C4F12002ED
:1004B00020FA04F001FA02F340EA030021FA04F3FF
:1004C00045EA030130BDC4F10C04C4F1200220FA56
:1004D00002F001FA04F340EA0300294630BD21FA94
:1004E00004F0294630BD94F0000F83F4801306BF5A
:1004F00081F480110134013D4EE77FEA645C18BF4E
:100500007FEA655C29D094EA050F08BF90EA020FE4
:1005100005D054EA000C04BF1946104630BD91EADC
:10052000030F1EBF0021002030BD5FEA545C05D1DF
:100530004000494128BF41F0004130BD14F580041E
:100540003CBF01F5801130BD01F0004545F0FE4192
:1005500041F470014FF0000030BD7FEA645C1ABFC7
:10056000194610467FEA655C1CBF0B46024650EAFE
:10057000013406BF52EA033591EA030F41F400212A
:1005800030BD00BF90F0000F04BF0021704730B5B0
:100590004FF4806404F132044FF000054FF0000185
:1005A00050E700BF90F0000F04BF0021704730B546
:1005B0004FF4806404F1320410F0004548BF40421B
:1005C0004FF000013EE700BF42004FEAE2014FEA70
:1005D00031014FEA02701FBF12F07F4393F07F4F4B
:1005E00081F06051704732F07F4208BF704793F04E
:1005F0007F4F04BF41F40021704730B54FF4607461
:1006000001F0004521F000411CE700BF50EA010263
:1006100008BF704730B54FF000050AE050EA01020C
:1006200008BF704730B511F0004502D5404261EB7C
:1006300041014FF4806404F132045FEA915C3FF4BD
:10064000D8AE4FF003025FEADC0C18BF03325FEA5A
:10065000DC0C18BF033202EBDC02C2F1200300FA0B
:1006600003FC20FA02F001FA03FE40EA0E0021FA30
:1006700002F11444BDE600BF0000000000000000CD
:1006800070B54FF0FF0C4CF4E06C1CEA11541DBF28
:100690001CEA135594EA0C0F95EA0C0F00F0DEF8F3
:1006A0002C4481EA030621EA4C5123EA4C5350EAD8
:1006B000013518BF52EA033541F4801143F4801329
:1006C00038D0A0FB02CE4FF00005E1FB02E506F0BA
:1006D0000042E0FB03E54FF00006E1FB03569CF00F
:1006E000000F18BF4EF0010EA4F1FF04B6F5007F15
:1006F00064F5407404D25FEA4E0E6D4146EB060687
:1007000042EAC62141EA55514FEAC52040EA5E500F
:100710004FEACE2EB4F1FD0C88BFBCF5E06F1ED8B9
:10072000BEF1004F08BF5FEA500E50F1000041EBF0
:10073000045170BD06F0004646EA010140EA02009D
:1007400081EA0301B4EB5C04C2BFD4EB0C0541EABF
:10075000045170BD41F480114FF0000E013C00F3D4
:10076000AB8014F1360FDEBF002001F0004170BDF8
:10077000C4F10004203C35DA0C341BDC04F1140411
:10078000C4F1200500FA05F320FA04F001FA05F29D
:1007900040EA020001F0004221F0004110EBD3706A
:1007A00021FA04F642EB06015EEA430E08BF20EA96
:1007B000D37070BDC4F10C04C4F1200500FA04F339
:1007C00020FA05F001FA04F240EA020001F00041CB
:1007D00010EBD37041F100015EEA430E08BF20EA3E
:1007E000D37070BDC4F1200500FA05F24EEA020E86
:1007F00020FA04F301FA05F243EA020321FA04F0B5
:1008000001F0004121FA04F220EA020000EBD3706B
:100810005EEA430E08BF20EAD37070BD94F0000F6B
:100820000FD101F00046400041EB010111F4801F9F
:1008300008BF013CF7D041EA060195F0000F18BF50
:10084000704703F00046520043EB030313F4801F8C
:1008500008BF013DF7D043EA0603704794EA0C0F46
:100860000CEA135518BF95EA0C0F0CD050EA41065C
:1008700018BF52EA4306D1D181EA030101F00041D9
:100880004FF0000070BD50EA410606BF1046194601
:1008900052EA430619D094EA0C0F02D150EA01360D
:1008A00013D195EA0C0F05D152EA03361CBF10464E
:1008B00019460AD181EA030101F0004141F0FE41ED
:1008C00041F470014FF0000070BD41F0FE4141F471
:1008D000780170BD70B54FF0FF0C4CF4E06C1CEA71
:1008E00011541DBF1CEA135594EA0C0F95EA0C0F26
:1008F00000F0A7F8A4EB050481EA030E52EA0335E1
:100900004FEA013100F088804FEA03334FF0805501
:1009100045EA131343EA12634FEA022245EA11152E
:1009200045EA10654FEA00260EF000419D4208BFDF
:10093000964244F1FD0404F5407402D25B084FEA8C
:100940003202B61A65EB03055B084FEA32024FF438
:1009500080104FF4002CB6EB020E75EB030E22BF95
:10096000B61A754640EA0C005B084FEA3202B6EB55
:10097000020E75EB030E22BFB61A754640EA5C0004
:100980005B084FEA3202B6EB020E75EB030E22BF94
:10099000B61A754640EA9C005B084FEA3202B6EB95
:1009A000020E75EB030E22BFB61A754640EADC0054
:1009B00055EA060E18D04FEA051545EA16754FEAB6
:1009C00006164FEAC30343EA52734FEAC2025FEAD4
:1009D0001C1CC0D111F4801F0BD141EA00014FF063
:1009E00000004FF0004CB6E711F4801F04BF014334
:1009F0000020B4F1FD0C88BFBCF5E06F3FF6AFAE50
:100A0000B5EB030C04BFB6EB020C5FEA500C50F1DF
:100A1000000041EB045170BD0EF0004E4EEA113162
:100A200014EB5C04C2BFD4EB0C0541EA045170BD69
:100A300041F480114FF0000E013C90E645EA060EAD
:100A40008DE60CEA135594EA0C0F08BF95EA0C0FDB
:100A50003FF43BAF94EA0C0F0AD150EA01347FF423
:100A600034AF95EA0C0F7FF425AF104619462CE7FA
:100A700095EA0C0F06D152EA03353FF4FDAE10465D
:100A8000194622E750EA410618BF52EA43067FF4AE
:100A9000C5AE50EA41047FF40DAF52EA43057FF43E
:100AA000EBAE12E7000000000000000000000000B4
:100AB0004FEA410212F5001215D211D56FF4787386
:100AC000B3EB625212D94FEAC12343F0004343EA29
:100AD000505311F0004F23FA02F018BF4042704704
:100AE0004FF00000704750EA013005D111F000408E
:100AF00008BF6FF0004070474FF00000704700BF24
:100B00004FEA4102B2F1E04324BFB3F5001CDCF12F
:100B1000FE5C0DD901F0004C4FEAC0024CEA507067
:100B2000B2F1004F40EB830008BF20F00100704796
:100B300011F0804F21D113F13872BCBF01F0004099
:100B4000704741F480114FEA5252C2F11802C2F1CB
:100B5000200C10FA0CF320FA02F018BF40F001004C
:100B60004FEAC1234FEAD32303FA0CFC40EA0C00FE
:100B700023FA02F34FEA4303CCE77FEA625307D13B
:100B800050EA01331EBF4FF0FE4040F44000704772
:100B900001F0004040F0FE4040F40000704700BF0C
:100BA00053B94AB9002908BF00281CBF4FF0FF31D4
:100BB0004FF0FF3000F074B9ADF1080C6DE904CED0
:100BC00000F006F8DDF804E0DDE9022304B0704728
:100BD0002DE9F047089E04468846002B4BD18A42F7
:100BE000154667D9B2FA82F24AB1C2F1200701FA7A
:100BF00002F320FA07F7954047EA030894404FEACA
:100C0000154E230CB8FBFEF71FFA85FC0EFB178868
:100C100043EA084307FB0CF1994209D9EB1807F1A5
:100C2000FF3080F01B81994240F21881023F2B4433
:100C30005B1AA4B2B3FBFEF00EFB103344EA03448C
:100C400000FB0CFCA44509D92C1900F1FF3380F0FE
:100C50000781A44540F2048102382C4440EA074051
:100C6000A4EB0C0400271EB1D4400023C6E90043C6
:100C70003946BDE8F0878B4209D9002E00F0EB80A1
:100C80000027C6E9000138463946BDE8F087B3FAC7
:100C900083F7002F47D18B4202D3824200F2FA80C1
:100CA000841A61EB030301209846002EE0D0C6E9C8
:100CB0000048DDE702B9FFDEB2FA82F2002A40F016
:100CC0008F80491B4FEA154E1FFA85F80127B1FBAB
:100CD000FEFC230C0EFB1C1143EA014308FB0CF144
:100CE000994207D9EB180CF1FF3002D2994200F279
:100CF000CD808446591AA3B2B1FBFEF00EFB10144E
:100D000043EA044408FB00F8A04507D92C1900F178
:100D1000FF3302D2A04500F2B6801846A4EB0804C7
:100D200040EA0C409FE7C7F1200CBB4022FA0CFEC2
:100D30004EEA030E01FA07F420FA0CF521FA0CF33F
:100D40004FEA1E482543B3FBF8F92C0C08FB193376
:100D50001FFA8EFA44EA034309FB0AF49C4202FAA2
:100D600007F200FA07F10BD91EEB030309F1FF307C
:100D700080F087809C4240F28480A9F1020973448C
:100D80001B1BADB2B3FBF8F008FB103345EA03447C
:100D900000FB0AFAA24508D91EEB040400F1FF3358
:100DA0006BD2A24569D90238744440EA0940A0FBDD
:100DB0000289A4EB0A044C45C2464B4654D351D099
:100DC000002E69D0B1EB0A0564EB030404FA0CFCB5
:100DD000FD40FC404CEA0505C6E90054002747E702
:100DE000C2F1200320FA03F7954001FA02F021FA3C
:100DF00003F34FEA154E3843010CB3FBFEF71FFA1D
:100E000085F80EFB173341EA034107FB08F38B42D9
:100E100004FA02F407D9691807F1FF3C2FD28B427C
:100E20002DD9023F2944CB1A81B2B3FBFEF00EFB51
:100E3000103341EA034100FB08F38B4207D96918DC
:100E400000F1FF3C17D28B4215D902382944C91A48
:100E500040EA07473BE73746304609E70746E7E6FB
:100E60001846FBE64145ABD2B8EB020A69EB0E022D
:100E700001381346A4E76046E9E7184695E7674658
:100E8000D1E781467CE702382C4447E7ACF1020CFD
:100E90002B442FE7384608E73746E9E60000000014
:100EA000704700BF000000000000000000000000CC
:100EB000844641EA000313F003036DD1403A41D365
:100EC00051F8043B40F8043B51F8043B40F8043B24
:100ED00051F8043B40F8043B51F8043B40F8043B14
:100EE00051F8043B40F8043B51F8043B40F8043B04
:100EF00051F8043B40F8043B51F8043B40F8043BF4
:100F000051F8043B40F8043B51F8043B40F8043BE3
:100F100051F8043B40F8043B51F8043B40F8043BD3
:100F200051F8043B40F8043B51F8043B40F8043BC3
:100F300051F8043B40F8043B51F8043B40F8043BB3
:100F4000403ABDD2303211D351F8043B40F8043B53
:100F500051F8043B40F8043B51F8043B40F8043B93
:100F600051F8043B40F8043B103AEDD20C3205D363
:100F700051F8043B40F8043B043AF9D2043208D05B
:100F8000D2071CBF11F8013B00F8013B01D30B88CD
:100F900003806046704700BF082A13D38B078DD0AB
:100FA00010F003038AD0C3F10403D21ADB071CBF7D
:100FB00011F8013B00F8013B80D331F8023B20F8E7
:100FC000023B7BE7043AD9D3013A11F8013B00F820
:100FD000013BF9D20B7803704B7843708B788370A8
:100FE00060467047000000000000000000000000A4
:100FF000A2EB0300704700BF02780B78012A28BFDC
:101000009A42F5D16DE9044540EA0104CDE9026751
:101010006FF0000C4FEA447212B380EA010414F03E
:10102000070F6AD100F0070420F0070004F0030561
:1010300021F007014FEAC505F0E8042314F0040F7E
:10104000F1E804670CFA05F462EA040266EA0406B1
:101050000AD063EA0403624667EA0407664603E0CF
:10106000F0E80423F1E8046782FA4CF582EA06040A
:10107000A4FA8CF46CBB83FA4CF583EA0705A5FA55
:101080008CF595B950E9022351E9026782FA4CF5D3
:1010900082EA0604A4FA8CF483FA4CF583EA070585
:1010A000A5FA8CF52543DBD09CB92DBAB5FA85F4A9
:1010B00024F0070427FA04F1DDE9026723FA04F3B8
:1010C00003F0FF0001F0FF01FDE80445A0EB010083
:1010D000704724BAB4FA84F424F0070426FA04F121
:1010E000DDE9026722FA04F202F0FF0001F0FF01DD
:1010F000FDE80445A0EB0100704714F0030F3CD15C
:1011000010F0030428D150F8082B51F8083B82FA5C
:101110004CF582EA0305A5FA8CF55DB950F8042C6C
:1011200051F8043C82FA4CF582EA0305A5FA8CF5E5
:10113000002DE8D02DBAB5FA85F424F0070423FA7F
:1011400004F122FA04F202F0FF0001F0FF01FDE8D1
:101150000445A0EB010070474FEAC40420F00300EF
:1011600050F8082B21F0030151F8083B0CFA04F465
:1011700062EA040263EA0403C9E710F003041AD028
:10118000A1EB040120F00300E40750F8042B06D083
:101190000FD28B785FFAA2F4E41A06D12BB1CB7888
:1011A0005FFAB2F4E41A00D11BB920465DF8104B87
:1011B000704701F1040150F8042BCC0721F0030122
:1011C00051F8043B48D824D222F07F4482FA4CF5EF
:1011D00094EA1325A5FA8CF50AD165B951F8043BB8
:1011E00084EA0204B4EB036F0ED150F8042BEBE752
:1011F0004FEA132355E035F07F454DD10878FDE8DF
:101200000445C0F1000070474FEA126203F0FF038B
:1012100047E002EA1C4482FA4CF594EA1345A5FA29
:101220008CF50AD165B951F8043B84EA0204B4EBA9
:10123000034F0CD150F8042BEBE74FEA134330E097
:1012400015EA1C4528D10B884FEA124229E04FEAE3
:10125000124203EA1C4324E002F0FF0482FA4CF538
:1012600094EA1365A5FA8CF50AD165B951F8043BE7
:1012700084EA0204B4EB032F09D150F8042BEBE706
:101280004FEA13630DE015F0FF0F05D10B684FEA2D
:10129000122223F07F4304E04FF00000FDE80445F4
:1012A000704712BA1BBA82FA4CF482EA0304A4FA19
:1012B0008CF5B5FA85F402FA04F203FA04F34FEA66
:1012C0001260FDE80445A0EB1360704700000000C9
:1012D00090F800F06DE9024520F007016FF0000C76
:1012E00010F0070491F820F040F049804FF000041E
:1012F0006FF00700D1E9002391F840F000F10800F9
:1013000082FA4CF2A4FA8CF283FA4CF3A2FA8CF330
:101310004BBBD1E9022382FA4CF200F10800A4FA97
:101320008CF283FA4CF3A2FA8CF3E3B9D1E90423EB
:1013300082FA4CF200F10800A4FA8CF283FA4CF322
:10134000A2FA8CF37BB9D1E9062301F1200182FADC
:101350004CF200F10800A4FA8CF283FA4CF3A2FAE2
:101360008CF3002BC6D0002A04BF04301A4612BAF0
:10137000B2FA82F2FDE8024500EBD2007047D1E9F3
:10138000002304F00305C4F100004FEAC50514F082
:10139000040F91F840F00CFA05F562EA05021CBF53
:1013A00063EA050362464FF00004A9E7000000006D
:1013B00001F0FF01102A2BDB10F0070F08D010F806
:1013C000013B013A8B422DD010F0070F42B3F6D10A
:1013D000F0B441EA012141EA014122F007047FF023
:1013E00000070023F0E80256083C85EA010586EA7A
:1013F000010685FA47F5A3FA87F586FA47F6A5FAB6
:1014000087F68EB9EED1F0BC01F0FF0102F00702C1
:1014100032B110F8013B013A83EA010313B1F8D16C
:101420000020704701387047002D06BF354603384D
:10143000073815F0010F07D1013015F4807F02BF86
:10144000013015F4C03F0130F0BC0138704700BFD7
:101450004FF0FF3C06E000BF4FF0010C02E000BF80
:101460004FF0010C4DF804CD4FEA410C7FEA6C5C63
:101470004FEA430C18BF7FEA6C5C1BD001B050EA06
:10148000410C0CBF52EA430C91EA030F02BF90EAF1
:10149000020F0020704710F1000F91EA030F58BFB0
:1014A000994208BF90422CBFD8176FEAE37040F012
:1014B000010070474FEA410C7FEA6C5C02D150EAB0
:1014C000013C07D14FEA430C7FEA6C5CD6D152EA6B
:1014D000033CD3D05DF8040B704700BF8446104630
:1014E00062468C461946634600E000BF01B5FFF72F
:1014F000B7FF002848BF10F1000F01BD4DF808EDFF
:10150000FFF7F4FF0CBF012000205DF808FB00BFCF
:101510004DF808EDFFF7EAFF34BF012000205DF829
:1015200008FB00BF4DF808EDFFF7E0FF94BF012076
:1015300000205DF808FB00BF4DF808EDFFF7CEFF77
:1015400094BF012000205DF808FB00BF4DF808EDB6
:10155000FFF7C4FF34BF012000205DF808FB00BF87
:101560004FEA410C7FEA6C5C02D150EA013C0AD19F
:101570004FEA430C7FEA6C5C02D152EA033C02D191
:101580004FF0000070474FF001007047000000006E
:101590000EB410B583B005AA094C52F8041B236899
:1015A00008480092019308F0FBF9019A23689A42D7
:1015B00004D103B0BDE8104003B0704700F058F804
:1015C000000800204424002000000000000000006B
:1015D000F0B51B4B1B4F1B681B4EA3B0219302F0B1
:1015E000CFFE00F02DFE19481949044604F040F8DA
:1015F00000F0AEF900F00CF900F0E2FB154A1649D4
:10160000164800F0EDFC1649144800F059FD054657
:1016100039462046FFF7BCFF01A92846802200F08A
:10162000B7FD139A31462046FFF7B2FF139BC82B34
:101630004FF0010098BF002000F00AF9E8E700BF72
:10164000000800200CD900081CD900084424002000
:1016500020080020040800200C080020F8110020B9
:1016600000D9000800000000000000000000000099
:1016700000B5084B83B01A680192019A1B689A4220
:1016800005D1054803B05DF804EB00F041BEFFF75B
:10169000EFFF00BF00080020E0D8000800000000B5
:1016A00030B5104D81682B680F4A83B001930B68E9
:1016B00023F001030B608168946A03E0936A1B1BAB
:1016C000C72B09D8086810F00100F7D1019A2B68E0
:1016D0009A4204D103B030BD4FF0FF30F6E7FFF778
:1016E000C7FF00BF000800202016002000000000F7
:1016F000F0B5284D83B02B68019301F039FE00F05E
:1017000027FF254B1E69F20715D55A69234C42F075
:1017100001025A612778BB1F012B2AD90522636871
:1017200022701B680BB120469847042F27D0022F48
:1017300025D003232370B30710D5174A174C5369DC
:1017400043F0020353612378032B1DD063689B6829
:101750000622227013B101211048984700F020FFA3
:10176000019A2B689A4213D103B0BDE8F04002F011
:10177000C7BD019A2B689A420AD103B0F0BD02237B
:101780002370B307EAD5D8E72046FFF789FFDDE7E6
:10179000FFF76EFF00080020000005500412002033
:1017A00070B5164E16483368154D82B005224FF4B9
:1017B0008071019306F074FC20246B6983F48073BC
:1017C0006B61012001F07CFB631E13F0FF04F4D178
:1017D0004FF4807140F206222983094806F060FC2C
:1017E000019A33689A4206D10649074802B0BDE81B
:1017F000704003F0C5B8FFF73BFF00BF00080020B2
:101800000004024020D90008A020002000000000B1
:1018100000B50C4A0C4B1278196883B0012A01916B
:10182000019A1B6804D09A4209D103B05DF804FB09
:101830009A4204D103B05DF804EBFFF7B1BFFFF7A4
:1018400017FF00BFA02000200008002000000000BB
:1018500000B50E4B83B01A68019201280BD90C49D0
:101860004A6982F480424A61019A1B689A420AD10D
:1018700003B05DF804FB064A4FF4804108B9518378
:10188000F2E71183F0E7FFF7F3FE00BF0008002046
:10189000000C0240000000000000000000000000FA
:1018A0002DE9F043254E83B034680194042A9DF855
:1018B0002890144605460F46984639D9B9F1000FCD
:1018C00014BF00224FF08052640002EB0863013C19
:1018D0001C4405F00F0527F01F07202383F3118810
:1018E00001F07EFD3D4300F0B3FD154B1035DD608A
:1018F0001C6100F0CDFD01F08BFD124B1A689A427D
:1019000004D0996993688A689A420DD3002383F3BF
:101910001188BFF36F8FBFF34F8F019A33689A42DC
:101920000AD103B0BDE8F083074800F0F1FCEDE711
:10193000064800F0EDFCC1E7FFF79AFE0008002022
:1019400090ED00E020160020B0D9000890D90008E2
:1019500030B5224D224C2B68224A85B00393636830
:1019600043F004036360536A43F4803353622023DB
:1019700083F3118801F034FD00F06AFD17221A4B41
:10198000E260236100F084FD01F042FD174B1A680C
:101990009A4204D0996993688A689A4218D30020C1
:1019A00080F31188BFF36F8FBFF34F8F03231D2286
:1019B00000904FF00051FFF773FF094A536843F05E
:1019C00001035360039A2B689A4205D105B030BDDC
:1019D000074800F09DFCE2E7FFF74AFE0008002000
:1019E00090ED00E000ED00E009000010201600205E
:1019F000B0D9000800000000000000000000000056
:101A000070B51A4D1A4C1B4E0FCD0FC49EB02A68EC
:101A1000336822801D93EFF30981682203A8FFF742
:101A200047FA154B9D6AAA0714D4EB0708D5124B49
:101A300008995B6B114A00910D48802108F098FDD0
:101A40001D9A33689A420FD109481EB0BDE8704014
:101A500000F05EBC099A5B6B0092A4F11000084A8A
:101A6000802108F085FDE0E7FFF702FE74D9000849
:101A7000181200200008002000ED00E050D90008F6
:101A800030D9000800000000000000000000000045
:101A90000A490B4B09680B4A82B020200191402172
:101AA00058834FF4806559834FF400644FF48040AD
:101AB00004215D835C8358835183FEE70008002086
:101AC000000C024000040240000000000000000082
:101AD00010B51E491E4A0B78106882B0013B019078
:101AE000072B0AD8DFE803F012151C1F26290F0464
:101AF00018480824012304830B7001991368994244
:101B000021D102B010BD08230B70F6E702230B7041
:101B1000F3E711484FF48054032304830B70ECE780
:101B200004230B70E9E70C484FF480440523048339
:101B30000B70E2E706230B70DFE706480424072357
:101B400004830B70D9E7FFF793FD00BF1816002040
:101B500000080020001002400004024000000000C5
:101B600030B50C4B0C4918680C4A83B04FF48045D3
:101B700001904FF480504883042408204D835483FF
:101B80005083019A1B689A4201D103B030BDFFF720
:101B90006FFD00BF0008002000040240001002405A
:101BA0002DE9F04F4E4B4F4A9B694F499961A5B0C3
:101BB00007AE05AD80231768009331462A460024FE
:101BC0000CA84A4B2397CDE90766CDE90555CDE929
:101BD00009440B9400F01CFA0CA9454A4548434CB3
:101BE000454DDFF83481DFF834B1DFF834A100F07F
:101BF00037FA04F11C0604F16007A146504601F0D3
:101C00008FFC2A682B69226063602A6A2B6BA260B2
:101C1000E3606A686B69226163616A6A6B6BA261E7
:101C2000E361AA68AB6922626362AA6AAB6BA262D3
:101C3000E362EA68EB6922636363EA6AEB6B2F494C
:101C4000A263E36351F8043F0A6AB142A3EB0203C3
:101C50000B64F7D1802249460CA800F059FA98F895
:101C60000030002BCAD09BF8003033B3012BC5D114
:101C7000DFF8B0C02248614650F8042B51F8043F09
:101C8000B84213440B60F7D11E4A13780133DBB21C
:101C9000642B1370B2D11C495CF8043F1B4A82FBD1
:101CA0000302DB17C3EB621341F8043B184B9C455E
:101CB000F2D1002388F80030A0E71946202212480C
:101CC000039308F005FC039B12481946202208F0F4
:101CD000FFFB0C49039B0B7001228BF800208DE762
:101CE0002016002000080020C0D900081C13002086
:101CF00000D90008F8110020B812002018130020A5
:101D00005C130020F91200207C1300201F85EB518A
:101D100018130020FC120020F8120020FA120020F4
:101D20002C080020F8120020000000000000000035
:101D300070B502691E4D52882B6882B006460C466B
:101D40001C4801939200002108F0C2FB33695B88B4
:101D50005BB1184AA11E002331F8020F42F8040BB0
:101D60003069408801339842F6D8202383F31188E4
:101D700001F066FB00F0ACFB00F03AFC0E48836813
:101D8000002B0FDD00F0C4FB01F072FB002383F396
:101D90001188019A2B68094901209A42087004D1E0
:101DA00002B070BD01F0F4FBECE7FFF761FC00BF8F
:101DB00000080020B81200202C080020181600206F
:101DC00070B51F4D1F4C2E78236884B0012E0393ED
:101DD00005D0039A23689A422FD104B070BD002128
:101DE000284602F0E5FB284602F0A2FC33462846CE
:101DF000154A164902F05CFC1549164802F068FEC7
:101E00004FF496720021134802F0B2FE00211148EF
:101E100002F046FF0F4802F0FBFE31464FF482729B
:101E20000C4802F0A5FE0023009340220A4B0B4809
:101E30004FF41E7100F0ECFFCBE7FFF719FC00BF79
:101E40007C1D00200008002098120020D0D9000836
:101E500000DA0008D4230020A11B0008A0130020F2
:101E600000B5084B83B01A680192019A1B689A4228
:101E700005D1054803B05DF804EB01F0B1BCFFF7F4
:101E8000F7FB00BF00080020380800200000000019
:101E900000B5084B83B01A680192019A1B689A42F8
:101EA00005D1054803B05DF804EB01F0D1BCFFF7A4
:101EB000DFFB00BF00080020380800200000000001
:101EC00070B50D4C82B0236801930D1E06460DDDE2
:101ED000284602F08DF918B90C2333604FF0FF301B
:101EE000019A23689A4205D102B070BD034800F000
:101EF0000FFAEDE7FFF7BCFB0008002040DA00080E
:101F000000B5064B83B01A680192019A1B689A4289
:101F100002D103B05DF804FBFFF7AAFB0008002024
:101F200000B5074B83B01A680192019A1B689A4268
:101F300004D103B05DF804EB01F052BCFFF798FB4D
:101F40000008002000000000000000000000000069
:101F500000B5074B83B01A680192019A1B689A4238
:101F600004D103B05DF804EB01F072BCFFF780FB15
:101F70000008002000000000000000000000000039
:101F800000B5074B83B01A680192019A1B689A4208
:101F900004D103B05DF804EB01F082BDFFF768FBEC
:101FA0000008002000000000000000000000000009
:101FB00000B5074B83B01A680192019A1B689A42D8
:101FC00004D103B05DF804EB01F0EABDFFF750FB6C
:101FD00000080020000000000000000000000000D9
:101FE00010B5084B82B01C68019400240460019C69
:101FF0001B689C42C0E9011201D102B010BDFFF77D
:1020000037FB00BF000800200000000000000000B7
:102010002DE9F0430E4D83B02C6801940446994697
:102020000F46164610304C220021DDF8288008F0BB
:102030004FFAC4F80090019A2B68E6609A42C4E90E
:10204000018702D103B0BDE8F083FFF711FB00BFA9
:102050000008002000000000000000000000000058
:10206000F0B5144E83B001F11003174632680192A7
:102070000446412218460D46002108F029FA394647
:10208000402208F0BDFA6068FFF74AFF236803B1F9
:10209000AB652560A068FFF773FF019A33689A4229
:1020A00005D1606803B0BDE8F040FFF751BFFFF70E
:1020B000DFFA00BF00080020000000000000000060
:1020C000F0B5124F83B006463B68406801930D4659
:1020D000FFF726FF346814B912E0A46D84B104F14F
:1020E00010012846FEF788FF0028F6D17068FFF738
:1020F0002FFF019A3B689A42204605D103B0F0BDFC
:10210000B068FFF755FFE5E7FFF7B2FA00080020D7
:10211000F0B51C4E436883B0054693423068019089
:1021200006D20020019A33689A4229D103B0F0BD4B
:1021300014460F46A868FFF7F3FE22463946286882
:10214000FEF7B6FE012385F85130E868FFF718FF67
:102150006C6D84B123681868FFF7E2FE23689D6008
:1021600023685868FFF70CFF23681868FFF7F0FE34
:102170006468002CEED1A868FFF7EAFE0120D1E7E1
:10218000FFF776FA000800200000000000000000C1
:10219000F0B50F4D83B004462B68806801930E465E
:1021A0001746FFF7BDFEE068FFF702FF3A463046EC
:1021B0002168FEF77DFE019A2B689A4205D1A0683E
:1021C00003B0BDE8F040FFF7C3BEFFF751FA00BF10
:1021D00000080020000000000000000000000000D7
:1021E00000B5064B83B01A680192019A1B689A42A7
:1021F00002D103B05DF804FBFFF73AFA00080020B3
:10220000024B82B01B680193FEE700BF000800206C
:1022100000B5044B04481B6883B0019300F078F8C4
:10222000FEE700BF0008002050DA000800000000B0
:10223000024B82B01B680193FEE700BF000800203C
:10224000F0B5294E294B3268294885B00024039205
:102250009C60D968274A4FF6FF0529400A43DA6097
:10226000C2682549254D42F08072C2600A6842F07A
:1022700001020A6010202022D87783F8222000F083
:10228000DFFA00F045FA00F0FBFF01F089FF01F0F2
:10229000F7FF01F04DF800F0FBF9402105F58860EB
:1022A00000F01EFD0127164BC36180F82070A86165
:1022B00000F0A6F884F3118862B6AB69114A9A61FE
:1022C0004FF4C4713A46104B009405F59D6000F040
:1022D0009FFD039A33680D4981619A4201D105B08F
:1022E000F0BDFFF7C5F900BF0008002000ED00E0D9
:1022F000F0ED00E00003FA05001000E020160020D9
:1023000000040020D0DB00083122000870DA000849
:1023100000B5054B83B01B680193044672B6FFF706
:10232000B7FB024BDC62FEE700080020201600200D
:102330002DE9F047DFF890A0224DDAF8003082B0A6
:10234000019300F055F9AB6993F8232012B1013ADB
:1023500083F823205A6ADFF8748001325A6200F051
:1023600047F9AB6AEA6901334245AB6220D0936812
:10237000013B9360EC69A668D6B94FF02009236849
:10238000E768E660C3F804802368EB6100F0C0F8FA
:1023900001F06EF886F311882069B84789F3118837
:1023A00001F04EF800F094F8EC69A368002BE6D039
:1023B000019ADAF800309A4202D102B0BDE8F08703
:1023C000FFF756F920160020000800203C160020D8
:1023D00010B5094C094A236882B0019351685368CB
:1023E0005B1A9842FBD8019A23689A4201D102B045
:1023F00010BDFFF73DF900BF00080020001000E00D
:1024000000B50E4A0E4B116B186883B0019009B9E4
:10241000526B4AB1019A1B689A420CD1094803B029
:102420005DF804EBFFF774BF019A1B689A4202D172
:1024300003B05DF804FBFFF71BF900BF2016002076
:102440000008002080DA0008000000000000000002
:1024500030B50B4C0B4D236B2A6883B001920BB93E
:10246000636B13B10848FFF753FF019A2B680121F2
:102470009A42616301D103B030BDFFF7F9F800BFA4
:102480002016002000080020B0DA0008000000003C
:1024900030B50C4C0C4D236B2A6883B0019253B9B4
:1024A000636B002B07DD019A2B6800219A42616360
:1024B00005D103B030BD0548FFF72AFFF3E7FFF76A
:1024C000D7F800BF2016002000080020D0DA00084E
:1024D00030B50B4C0B4D236B2A6883B0002B019257
:1024E00001DD636B13B10848FFF712FF019A2B68F7
:1024F00001219A42616301D103B030BDFFF7B8F802
:102500002016002000080020C0DA000800000000AB
:1025100030B50C4C0C4D236B2A6883B0002B019214
:102520000ADD636B002B07DD019A2B6800219A42BC
:10253000616305D103B030BD0448FFF7E9FEF3E75E
:10254000FFF796F82016002000080020E0DA0008C7
:1025500030B50F4D83B02B680193202383F311888E
:102560000C4C236B002B01DB626B1AB10A48FFF79E
:10257000CFFE236B01332363002383F31188019A79
:102580002B689A4201D103B030BDFFF771F800BF4C
:10259000000800202016002090DA0008000000004B
:1025A00030B50F4D83B02B680193202383F311883E
:1025B0000C4C236B002B01DD626B1AB10A48FFF74C
:1025C000A7FE236B013B2363002383F31188019A49
:1025D0002B689A4201D103B030BDFFF749F800BF24
:1025E0000008002020160020A0DA000800000000EB
:1025F00000B50F4A0F4B116B186883B0002901908A
:1026000009DB526B002A06DD019A1B689A420CD145
:1026100003B05DF804FB019A1B689A4205D1064895
:1026200003B05DF804EBFFF773BEFFF721F800BFBE
:102630002016002000080020F0DA0008000000004A
:1026400000B50E4A0E4B116B186883B0019049B962
:10265000526B002A06DD019A1B689A420CD103B026
:102660005DF804FB019A1B689A4205D1054803B046
:102670005DF804EBFFF74CBEFEF7FAFF20160020D2
:102680000008002000DB000800000000000000003F
:1026900010B5084A084B116882B040240191019995
:1026A000126818199142C3E90E4001D102B010BD61
:1026B000FEF7DEFF000800202016002000000000CA
:1026C00010B51149114B0A6882B00192DA6B9C6A0D
:1026D0001460DA6B9C695460DA6B846A9460DA6B1C
:1026E00090F820001073DA6B03F588601032824294
:1026F00028BF03F14002DA63019A0B689A4201D1C4
:1027000002B010BDFEF7B4FF000800202016002024
:1027100010B50B4A0B4B116882B04FF0FF3401919A
:1027200000219962019811685C6203F11C028842E1
:10273000C3E9072201D102B010BDFEF799FF00BF27
:10274000000800202016002000000000000000000B
:102750002DE9F041184E82B00546306801900C46D4
:1027600017469846FFF744FF05B3FFB1F4B1C5E93A
:1027700003781248C3699A68944204D91B68A41A62
:102780009A68A242FAD32B605A686A6015605D604D
:10279000AC609968019D3268091B95424FF0FF3487
:1027A0009960446206D102B0BDE8F0810448FFF7A9
:1027B000AFFDDCE7FEF75CFF0008002020160020DC
:1027C00010DB000800000000000000000000000016
:1027D00030B5164D83B004462B680193FFF708FF10
:1027E000ECB1E368BBB12268A06893680199034427
:1027F0009360D4E900231A6020682B680C4A65684E
:10280000456099424FF000054FF0FF30E56050629F
:1028100009D103B030BD0748FFF77AFDE3E705486B
:10282000FFF776FDDDE7FEF723FF00BF000800207D
:102830002016002020DB000800000000000000003F
:1028400000B50A4A0A4B11681B6083B00020019151
:10285000019912685B609142C3E90433986002D128
:1028600003B05DF804FBFEF703FF00BF0008002083
:102870002016002000000000000000000000000002
:1028800030B5164D83B004462B680193FFF7B0FEB8
:10289000ECB194F82030B3B10F2B14D00022A16812
:1028A0000F4B84F820201B689A688A42FBD2236071
:1028B0005A686260146001992A685C6091422046FF
:1028C00009D103B030BD0748FFF722FDE6E7054810
:1028D000FFF71EFDDDE7FEF7CBFE00BF000800207E
:1028E0002016002030DB000800000000000000007F
:1028F00070B5204D82B02B6801930446202383F3EA
:10290000118800F09DFDFFF7E3FD94F82030072BC0
:1029100011D8DFE803F0161010230A04100AA66A83
:10292000FFF766FEB3680133B360D4E900231A6091
:10293000D4E900325A604FF0FF33A3622046FFF71C
:102940009FFFFFF7E5FD00F093FD002383F311885F
:10295000019A2B689A420BD102B070BDA36A002283
:102960001A604FF0FF33A3622046FFF789FFE8E7C4
:10297000FEF77EFE000800200000000000000000BE
:10298000F0B5194E194C336883B007460193FFF731
:1029900057FEA569236885F82070142285F8232046
:1029A0001A68226001215460284683F82010A36130
:1029B000FFF786FE2946A06900F0F2FCEFF30983D9
:1029C000EA69643B9A4202D90948FFF7A1FC019ADF
:1029D00033689A4206D1A069294603B0BDE8F040A9
:1029E000FDF766BCFEF744FE00080020201600201C
:1029F00040DB0008000000000000000000000000B4
:102A0000F0B5154C87B0236805930E460746FFF7CF
:102A100017FE731C18D0114D114AAB693146684638
:102A2000FFF796FE3846FFF7ABFFFFF7E1FD039B8C
:102A300013B16846FFF7CCFE059A2368A9699A424C
:102A4000886A06D107B0F0BD3846FFF799FF034DFD
:102A5000F2E7FEF70DFE00BF000800202016002060
:102A6000F128000800000000000000000000000045
:102A7000F0B51E4D1E4E2B6883B0044601930F46E1
:102A8000FFF7DEFDB069A7628368A2689A421DD98C
:102A9000FFF7F6FE0123074684F82030B461FFF704
:102AA0000FFE3946204600F07BFCEFF30983FA69FC
:102AB000643B9A4214D8019A2B689A4214D1394641
:102AC000204603B0BDE8F040FDF7F2BB019A2B6849
:102AD0009A4209D1204603B0BDE8F040FFF7D0BECE
:102AE0000448FFF715FCE6E7FEF7C2FD00080020EA
:102AF0002016002040DB000800000000000000005D
:102B000010B50E490E4B8A69086892F823101C68AC
:102B10008068926882B0019449B9904234BF002025
:102B20000120019A1B689A4206D102B010BD904262
:102B300094BF00200120F4E7FEF79AFD2016002044
:102B4000000800200000000000000000000000005D
:102B500070B5184C184E2368A5691A682260546035
:102B6000012283F8202082B01422316885F82320C6
:102B70002846A3610191FFF783FE2846FFF7A0FDD9
:102B80002946A06900F00CFCEFF30983EA69643B75
:102B90009A4202D90948FFF7BBFB019A33689A426F
:102BA00006D1A069294602B0BDE87040FDF780BBA0
:102BB000FEF75EFD201600200008002040DB000824
:102BC00070B51C4D1C4E2A68AC6913682B6001213E
:102BD00082B05D60002082F82010AA613268A1688E
:102BE00084F82000019200E01B689A688A42FBD8B2
:102BF00023605A686260204614605C60FFF760FDE5
:102C00002146A86900F0CCFBEFF30983E269643B3D
:102C10009A4202D90948FFF77BFB019A33689A422E
:102C200006D1A869214602B0BDE87040FDF740BB5F
:102C3000FEF71EFD201600200008002040DB0008E3
:102C400010B50F4C82B023680193FFF7F9FCFFF732
:102C5000CFFC0C4B1A689B6992689B689A42019A58
:102C6000236803D89A4208D102B010BD9A4204D119
:102C700002B0BDE81040FFF7A3BFFEF7F9FC00BFAC
:102C800000080020201600200000000000000000C6
:102C900000B50E4A0E4B9269196892F8232083B052
:102CA000019142B1019A1B689A420DD103B05DF8BF
:102CB00004EBFFF785BF019A1B689A4204D103B069
:102CC0005DF804EBFFF744BFFEF7D2FC20160020AE
:102CD00000080020000000000000000000000000CC
:102CE000F0B51A4A1A4D02610446816083B014237C
:102CF00050692E68616484F8233002270023012183
:102D0000278484F82210C4E90F3304F16801A36119
:102D1000019604F12C07636204F1500604F13003BC
:102D200060610461C4E90C33E1613046E7625461DB
:102D300000F03EFA304600F05BFA019A2B689A42A6
:102D400002D1204603B0F0BDFEF792FC2016002011
:102D5000000800200000000000000000000000004B
:102D600010B5094B82B01C680194884203D200F868
:102D7000012B8142FBD1019A1B689A4201D102B01A
:102D800010BDFEF775FC00BF000800200000000029
:102D90002DE9F043184E83B0346801940546DDF800
:102DA00028900C4617469846FFF722FC15B1B4F55B
:102DB000BC7F19D21148FFF7ABFAA4F16401294492
:102DC000E960C1F84080EB68019AC3F84490336829
:102DD000E9680B4808669A420CD13946284603B088
:102DE000BDE8F043FFF77CBF7F2FE3D8B8F1000FB9
:102DF000E3D1DFE7FEF73CFC0008002090DB000891
:102E0000C9020008000000000000000000000000EF
:102E10002DE9F04FDFF8A48087B0D8F80040DDF846
:102E20004090059407468A46934600F1680604469A
:102E3000FF2504F8015BA642FBD107EB0A05A5427A
:102E400004D9552604F8016BA542FBD10393202237
:102E500082F3118800F0C4FAFFF7FAFA039BCDF869
:102E600000905A4651463846FFF792FF002104462B
:102E7000FFF7FEFDFFF70CFB00F0CAFA0D4B1A68D6
:102E80009A4204D0996993688A689A420BD30023C6
:102E900083F31188059AD8F800309A42204606D16B
:102EA00007B0BDE8F08F0448FFF732FAEFE7FEF70E
:102EB000DFFB00BF2016002050DB000800080020C8
:102EC00030B5184C83B0236801930546202383F363
:102ED000118800F085FAFFF7BBFA15B91248FFF721
:102EE00017FA29460820FFF78BFDFFF7D1FA00F00B
:102EF0008FFA0E4B1A689A4204D0996993688A68CF
:102F00009A4208D3002383F31188019A23689A42D6
:102F100005D103B030BD0648FFF7FAF9F2E7FEF736
:102F2000A7FB00BF0008002060DB0008201600207F
:102F300050DB00080000000000000000000000005E
:102F400070B5164B164E9C693268E36AA06282B077
:102F500004F12C05AB42019207D01A68E2621846D0
:102F6000FFF78EFCE36AAB42F7D194F821309B0760
:102F700005D1D4E904231A61D4E904325A610F203F
:102F8000FFF7FEFC019A33689A4205D1054802B06A
:102F9000BDE87040FFF7BCB9FEF76AFB20160020C1
:102FA00000080020A0DB0008000000000000000076
:102FB00030B50C4C83B0236801930546202383F37E
:102FC000118800F00DFAFFF743FA019A23689A423C
:102FD00005D1284603B0BDE83040FFF7B1BFFEF78A
:102FE00047FB00BF000800200000000000000000B8
:102FF000F0B50D4D0D4E03682A68B76983B00446DD
:10300000019213B10A48FFF783F927600320BC62DD
:10301000FFF7B6FC019A2B68B1699A42886A01D120
:1030200003B0F0BDFEF724FB0008002020160020AE
:10303000B0DB0008000000000000000000000000FD
:10304000F0B5124D04682B6883B00193B4B194F8C5
:103050002030032B06460F460CD100233360019A23
:103060002B68A7629A420FD1204603B0BDE8F0401A
:10307000FFF706BC0648FFF74BF9EEE7019A2B680D
:103080009A4201D103B0F0BDFEF7F2FA0008002029
:10309000C0DB00080000000000000000000000008D
:1030A00030B5104A83B01368019381B10E4B019D76
:1030B0009B69186044685C602360126843609542B5
:1030C0000DD1042003B0BDE83040FFF799BC019951
:1030D000136899424FF0FF3001D103B030BDFEF7C5
:1030E000C7FA00BF000800202016002000000000E2
:1030F00070B5124D04682B6882B0A042019315D0C0
:1031000023680360586094F82030042B0E4602D0E8
:103110000B48FFF7FDF8019A2B68A6629A420BD183
:10312000204602B0BDE87040FFF7AABB019A2B68A9
:103130009A4201D102B070BDFEF79AFA0008002051
:1031400070DB00080000000000000000000000002C
:103150002DE9F041DFF850800468D8F8003082B0E3
:10316000A042019313D00F4F05460E4623682B60F3
:103170005D6094F82030042B02D03846FFF7C8F881
:10318000A6622046FFF77CFB2C68A542EED1019A8F
:10319000D8F800309A4202D102B0BDE8F081FEF7C3
:1031A00067FA00BF70DB0008000800200000000084
:1031B00030B50B4B83B01A6801924FF0FF320260BA
:1031C00001991A680024002300259142C0E90445B2
:1031D000C0E90133C36001D103B030BDFEF748FA46
:1031E00000080020000000000000000000000000B7
:1031F00000B5084B084A196883B001915168019ADB
:103200001B6881609A4202D103B05DF804FBFEF7AF
:103210002FFA00BF00080020001000E000000000AE
:10322000F0B51449144B0A68846883B00192134ABC
:103230005B68D2F8A864C2681B1BD0E90445013260
:103240009B1BC26042688360E61845F10007934209
:10325000C0E9046709D80268934238BF0360019A45
:103260000B689A4203D103B0F0BD4360F7E7FEF765
:10327000FFF900BF00080020001000E02016002029
:1032800030B5114D114C2B6889B04FF0FF310793C9
:10329000002300226846C4F8A834CDE90133039323
:1032A0000023CDE904230091FFF7A2FF6846FFF752
:1032B000B7FF079A2B680299C4F8A8149A4201D163
:1032C00009B030BDFEF7D4F9000800202016002018
:1032D0002DE97048134E144B326883B001925B683D
:1032E0008B60D0E902411B1BD0E90445426814EB16
:1032F000030B45F1000C01319342C0E90231C0E9F2
:1033000004BC0AD80268934238BF0360019A33684C
:103310009A4204D103B0BDE870884360F6E7FEF737
:10332000A7F900BF00080020001000E00000000026
:1033300030B50D4D0D4C2B6883B004F597600193AB
:103340000023C4F8B034C4F8B434FFF731FF019A55
:103350002B689A4206D104F59A6003B0BDE830406C
:10336000FFF726BFFEF784F9000800202016002092
:1033700000B50949094A0B6883B001930198D2F856
:10338000B034096801338842C2F8B03402D103B0C6
:103390005DF804FBFEF76CF9000800202016002001
:1033A00070B50D4C0D4A236882B00193019DD2F88F
:1033B000B43424680133A542C2F8B43409D10E46AE
:1033C00000F1500106F1500002B0BDE87040FFF777
:1033D0007FBFFEF74DF900BF000800202016002037
:1033E00000B5084B83B01A680192019A1B689A4293
:1033F00005D1054803B05DF804EBFFF7F9BEFEF711
:1034000037F900BF00080020D81A00200000000093
:1034100000B5084B83B01A680192019A1B689A4262
:1034200005D1054803B05DF804EBFFF7F9BEFEF7E0
:103430001FF900BF00080020D81A0020000000007B
:1034400000B5084B83B01A680192019A1B689A4232
:1034500005D1054803B05DF804EBFFF7C9BEFEF7E0
:1034600007F900BF00080020F01A0020000000004B
:1034700000B5084B83B01A680192019A1B689A4202
:1034800005D1054803B05DF804EBFFF7C9BEFEF7B0
:10349000EFF800BF00080020F01A00200000000034
:1034A00070B51B4D82B004462B680193FFF7C8F836
:1034B00044B3A3682268002B10DBA24203D0154856
:1034C000FEF726FFA368013B002BA3600CDB002066
:1034D000019A2B689A4219D102B070BDA242EED077
:1034E000013B002BA360F2DA0B4EB3699C621C60B7
:1034F00062685A60052013606360FFF741FAB369A0
:10350000986AE5E70348FEF703FFD2E7FEF7B0F855
:103510000008002000DC0008201600200000000049
:1035200030B5164C83B0236801930546202383F3FE
:103530001188FFF755FFFEF78BFF2846FFF7B0FF16
:103540000546FEF7A5FFFFF763FF0D4B1A689A4289
:1035500004D0996993688A689A4209D3002383F357
:103560001188019A23689A42284605D103B030BDDC
:103570000448FEF7CDFEF1E7FEF77AF800080020D8
:1035800020160020F0DB0008000000000000000012
:1035900030B51C4D83B004462B680193FFF728F823
:1035A0004CB3A3682268002B0FDBA24203D016485D
:1035B000FEF7AEFEA3680133002BA3600BDD019A7A
:1035C0002B689A421BD103B030BDA242EFD0013329
:1035D000002BA360F3DC20680199036823602A684C
:1035E0005C6091424FF00003836208D103B0BDE8F4
:1035F0003040FFF745B90448FEF78AFED1E7FEF7F1
:1036000037F800BF0008002010DC000800000000B0
:1036100030B50B4D83B02B680193044650B1246044
:1036200001992A68646000239142A360236105D157
:1036300003B030BD0348FEF76BFEF0E7FEF718F865
:103640000008002030DC000800000000000000003E
:10365000F0B55D4E5D4B32689D6983B004460192C2
:10366000FEF7EEFF002C00F08480A068236900289C
:1036700043D0002B40F39780854276D0AA688368B8
:103680009A4208D990F820308260062B40D0072B50
:1036900073D0002B5DD02746234603E09968AA68C3
:1036A000914233D31B689C42F8D12F607B686B60DA
:1036B00006201D607D60AC62FFF762F9A368AB4233
:1036C00002D04348FEF724FE2B6CA34202D04048B0
:1036D000FEF71EFE2369012B05D1019A33689A4239
:1036E0006FD103B0F0BD019A33689A4269D138486E
:1036F00003B0BDE8F040FEF70BBE002B58D10133FC
:10370000A56023612B6CE3602C64E6E71F46CCE7E1
:10371000D0E900231A60D0E900325A60876A3B463C
:1037200003E099688268914247D31B689F42F8D1B1
:1037300007607B68436018607860836AAA6898684D
:1037400083689342A7D290F820308260062B9ED1E6
:10375000DEE7D0E90023012180F820101A60D0E9CB
:1037600000325A60FFF78CF895E723690133236133
:10377000B3E71748FEF7CCFD77E7D0E900231A60DE
:10378000D0E900325A60876A3B4603E09968826854
:10379000914214D31B689F42F8D107607B68436055
:1037A0001860786077E70A48FEF7B2FDA06863E723
:1037B0000748FEF7ADFD2369A1E71F46B8E71F469E
:1037C000EBE7FDF755FF00BF0008002020160020A2
:1037D00040DC0008000000000000000000000000C5
:1037E00030B5154C83B0236801930546202383F33D
:1037F0001188FFF7F5FDFEF72BFE2846FFF728FF9F
:10380000FEF746FEFFF704FE0C4B1A689A4204D0FE
:10381000996993688A689A4208D3002383F31188D0
:10382000019A23689A4205D103B030BD0448FEF7DF
:103830006FFDF2E7FDF71CFF0008002020160020B6
:1038400020DC000800000000000000000000000074
:103850002DE9F043DFF800813C4FD8F80030BE6915
:1038600083B005460193002864D0202383F3118898
:10387000FFF7B6FDFEF7ECFD336C002B5ED09B68C6
:10388000B34202D03248FEF743FD2B69002B49DDDD
:10389000013B2B615BBB336CAB4202D02C48FEF783
:1038A00037FDEB683364FEF7CBFE2B689D423ED0BC
:1038B000D6E910495CB1FEF7C3FE23689C4203D0F1
:1038C0009B68994538BF9946E468002CF3D1C6F847
:1038D00008902B6801222A611A682A605560AB6043
:1038E0001A6CEA6018461D640021FFF7C1F8FEF764
:1038F000CFFDFFF78DFD3B68BB4204D0BA699B68E2
:1039000092689A420AD3002383F31188019AD8F867
:1039100000309A4217D103B0BDE8F0830D48FEF79E
:10392000F7FCF0E70A48FEF7F3FC2B69B0E7002349
:10393000AB60DCE70648FEF7EBFC96E70448FEF7D1
:10394000E7FC336C9BE7FDF793FE00BF20160020D9
:1039500050DC000820DC0008000800200000000007
:103960002DE9F041DFF8D880334BD8F800209E696C
:1039700082B005460192FEF763FE002D4FD0336CF6
:10398000002B52D09B68B34202D02C48FEF7C0FCFB
:103990002B69002B3EDD013B2B61002B32D1336CB8
:1039A000AB4202D02548FEF7B3FCEB683364FEF768
:1039B00047FE2B689D4223D0D6E910475CB1FEF745
:1039C0003FFE23689C4203D09B689F4238BF1F463E
:1039D000E468002CF3D1B7602868019901232B61BA
:1039E00003682B60D8F800205D60A860036CEB6072
:1039F000914205641ED102B0BDE8F041FEF740BF20
:103A00000023AB60019AD8F800309A4212D102B07C
:103A1000BDE8F0810948FEF77BFC2B69BBE707484E
:103A2000FEF776FC336C002BACD10448FEF770FC3B
:103A3000336CA7E7FDF71CFE2016002060DC0008B1
:103A4000000800200000000000000000000000004E
:103A500070B5114E82B0044633680193FEF7C8FD7D
:103A60009CB12068A0420AD06FF001050368236072
:103A70005C60FEF705FF85622068A042F6D1019ADE
:103A800033689A4205D102B070BD0448FEF740FC8D
:103A9000E7E7FDF7EDFD00BF0008002080DC00082F
:103AA00030B5164C83B0236801930546202383F379
:103AB0001188FFF795FCFEF7CBFC2846FFF7C8FFFF
:103AC000FFF7BEF8FEF7E4FCFFF7A2FC0C4B1A6808
:103AD0009A4204D0996993688A689A4208D300236D
:103AE00083F31188019A23689A4205D103B030BD4F
:103AF0000448FEF70DFCF2E7FDF7BAFD00080020D0
:103B00002016002070DC000800000000000000000B
:103B10002DE9F0411E4F1F4E3B68B46982B0054647
:103B20000193FEF78DFD65B3236C33B3B369D3F80E
:103B300040804046FFF714FF2E46A5622B4603E067
:103B40009968A268914216D31B689D42F8D12660FD
:103B50007368636007201C607460FEF711FF4046C5
:103B6000A46AFFF775FD019A3B689A4220460CD182
:103B700002B0BDE8F0811E46E9E70748FEF7C8FB42
:103B8000D4E70548FEF7C4FBCEE7FDF771FD00BFA3
:103B90000008002020160020A0DC00080000000023
:103BA00030B5164C83B0236801930546202383F378
:103BB0001188FFF715FCFEF74BFC2846FFF7A8FF1E
:103BC0000546FEF765FCFFF723FC0D4B1A689A4289
:103BD00004D0996993688A689A4209D3002383F3D1
:103BE0001188019A23689A42284605D103B030BD56
:103BF0000448FEF78DFBF1E7FDF73AFD00080020D1
:103C00002016002070DC000800000000000000000A
:103C100070B5184E82B00446336801930D46FEF726
:103C2000E7FC0CB3E16B94F8203029430A2BE163E5
:103C300016D00B2B05D0019A33689A4218D102B0E6
:103C400070BDA36A8B43F6D1019A336800219A4272
:103C5000A1620DD1204602B0BDE87040FEF710BE53
:103C6000A36A1942F0D1E6E70348FEF751FBD9E712
:103C7000FDF7FEFC00080020D0DC0008000000007A
:103C8000F0B5134F83B006463B6801930D46FEF72F
:103C9000AFFCB6B13468A6420DD0E3682B43E360B5
:103CA00015B12269134203D0D4E90101FFF7B0FF37
:103CB0002468A642F1D1019A3B689A4205D103B02B
:103CC000F0BD0448FEF724FBE4E7FDF7D1FC00BF9C
:103CD00000080020B0DC0008000000000000000028
:103CE00070B50C4CC16082B0266801960A44006031
:103CF000019E02612268069D4060C0E9051196425E
:103D00004FF00001C3618160056201D102B070BD56
:103D1000FDF7AEFC000800200000000000000000DD
:103D200070B5164D82B004462B6801930E46FEF71F
:103D30005FFCFEF75DFCD4E905239A42A36816D028
:103D40000133511CA36061611670D4E904329A42B8
:103D50000AD220460021FFF7CBF90020019A2B68F8
:103D60009A4209D102B070BDE3686361F1E7002BAC
:103D7000E6D06FF00300F1E7FDF77AFC00080020C1
:103D8000F0B5234F83B03B68019304460E462023D1
:103D900083F31188FFF724FBFEF75AFBE36943B175
:103DA0002046984705E031462046FFF779F9051E81
:103DB00010DBFEF71DFCA368002BF4D0A16920697D
:103DC0004A1C013B8242A360A26128BFE3680D78D0
:103DD00028BFA361FEF75CFBFFF71AFB0D4B1A68C7
:103DE0009A4204D0996993688A689A4209D3002359
:103DF00083F31188019A3B689A42284605D103B0A3
:103E0000F0BD0548FEF784FAF1E7FDF731FC00BF8D
:103E10000008002020160020E0DC00080000000060
:103E20002DE9F04FDFF8F490044685B0D9F8000092
:103E300003908A461D46D4F81C809346002A60D021
:103E4000202383F311880193FFF7CAFAFEF700FBE2
:103E50002F4E0027B8F1000F07D02046C04704E0DE
:103E600029462046FFF71CF960BBFEF7C1FBA3689B
:103E7000002BF5D0A269013B511CA161A36013780E
:103E80000AF8013B2369A2699A4224BFE368A3614F
:103E9000FEF7FEFAFFF7BCFA3368B34204D0B2690A
:103EA0009B6892689A4228D3002383F311880137D4
:103EB000BB4519D0019B83F31188FFF791FAFEF7F8
:103EC000C7FAC7E7FEF7E4FAFFF7A2FA3368B3428E
:103ED00007D0B2699B6892689A4202D20D48FEF7F9
:103EE00017FA002383F31188039AD9F800309A4215
:103EF00038460AD105B0BDE8F08F0648FEF708FA4B
:103F0000D2E70548FEF704FA9AE7FDF7B1FB00BFD8
:103F100020160020E0DC0008F0DC0008000800208B
:103F200070B50B4D82602E68C16082B0C0E90000A0
:103F300001960A44019E02612A68069C9642C0E9E5
:103F40000511C0E9073401D102B070BDFDF790FB47
:103F50000008002000000000000000000000000039
:103F60002DE9F0412E4F82B03B680193044688460C
:103F70001646202383F31188FFF732FAFEF768FA1A
:103F800005E031462046FFF78BF8051E2DDBFEF7D6
:103F90002FFBA368002BF4D06269013B511C6161C7
:103FA000A36082F80080D4E904329A4224BFE36817
:103FB0006361E3690BB120469847FEF769FAFFF7A2
:103FC00027FA184B1A689A4204D0996993688A684C
:103FD0009A421ED3002585F31188019A3B689A42C4
:103FE00028461AD102B0BDE8F081FEF751FAFFF77A
:103FF0000FFA0C4B1A689A4207D0996993688A683D
:104000009A4202D20848FEF783F9002383F311880D
:10401000E3E70548FEF77CF9DCE7FDF729FB00BF85
:104020000008002020160020E0DC0008000000004E
:1040300070B5154E82B0044633680193FEF7D8FA86
:10404000FEF7D6FAD4E905329342A36815D0206969
:10405000511C0133A360A161814215780AD2204628
:104060000021FFF745F82846019A33689A4209D1A2
:1040700002B070BDE368A361F1E7002BE7D06FF0F9
:104080000200F1E7FDF7F4FA00080020000000004C
:104090002DE9F04F04463B48D4F81C90006885B0E9
:1040A0000D46039001931646002A61D04FF0200A76
:1040B0008AF31188FFF794F9FEF7CAF94FF0000868
:1040C000314FC346FEF794FAA368002B32D06269E1
:1040D000013B511C6161A3602B781370D4E9043259
:1040E0009A4224BFE36863610135B9F1000F01D042
:1040F0002046C847FEF7CCF9FFF78AF93B68BB4278
:1041000007D0BA699B6892689A4202D21F48FEF7AC
:10411000FFF88BF31188013E08F101081FD08AF3E4
:104120001188FFF75DF9FEF793F9FEF761FAA368CE
:10413000002BCCD101992046FEF7B2FF0028C1D058
:10414000FEF7A6F9FFF764F93B68BB4204D0BA69F1
:104150009B6892689A420FD3002383F31188094B1E
:10416000039A1B689A4240460AD105B0BDE8F08F19
:104170000748FEF7CDF899E70448FEF7C9F8EBE7E2
:10418000FDF776FA0008002020160020E0DC000889
:1041900000DD00080000000000000000000000003A
:1041A00030B50B490B4A0B680B4D0C4C83B022F019
:1041B0000702019301980A4B09682A6023F007035C
:1041C0008842236001D103B030BDFDF751FA00BF32
:1041D00000080020F7240020941C0020901C0020E0
:1041E00000000220000000000000000000000000AD
:1041F00070B51C4E82B0336801930446202383F3CC
:104200001188FFF7EDF8FEF723F9FEF7F1F9164AEA
:10421000164B15681B68E01D20F007005B1B9842D9
:104220009ABF401910600025FEF732F9FFF7F0F849
:104230000F4B1A689A4204D0996993688A689A4227
:1042400009D3002383F31188019A33689A422846E0
:1042500005D102B070BD0748FEF75AF8F1E7FDF747
:1042600007FA00BF00080020941C0020901C0020CA
:104270002016002020DD00080000000000000000E3
:1042800000B50B4B0B481A6883B0019201991A686C
:10429000094B036091424FF00003C0E9023305D19E
:1042A000103003B05DF804EBFFF7B2B9FDF7E0F9A9
:1042B00000080020981C0020F141000800000000C8
:1042C00080B50D4A0D4982B000AF13687B604B6822
:1042D00023F001034B60EFF30983683383F309880C
:1042E000002383F3118879681368994202D1083753
:1042F000BD4680BDFDF7BCF90008002030EF00E0AE
:10430000B0B5194C82B000AF23687B60202383F3E3
:104310001188164B5B6813F4006308D183F311888E
:104320007A6823689A421DD10837BD46B0BDF1EEC8
:10433000103AEFF309854FF080720D4B45F84C2C85
:10434000DB6845F8083CA5F1680383F30988FEF7AC
:10435000D7FB18B1074B45F8503CE1E7064B45F851
:10436000503CDDE7FDF784F90008002000ED00E097
:1043700030EF00E0E1020008F40200080000000055
:1043800010B5184C82B02368019302F009F9164861
:1043900003F09EFD00F0D4F800F0EAF900F030FAE6
:1043A00000F05EFA00F08CFA00F0BAFA00F030FB90
:1043B00000F05EFB01F014F901F01AF801F0E8F9E1
:1043C00001F02EFA01F0D4F905F0DAFA019A236827
:1043D0009A4204D102B0BDE8104001F009BAFDF7DD
:1043E00047F900BF0008002060E20008000000005C
:1043F000F0B51A4D83B02B68019391420E461446D6
:10440000074619D38B1A1F2B16D806F01F03581C0A
:104410006209012376098340B24203F1FF3304F0BD
:104420001F0457F822000BD31840E040019A2B6874
:104430009A4210D103B0F0BD0948FDF769FFE4E7E7
:1044400057F82610C4F120020B4020FA04F403FAB6
:1044500002F02043EAE7FDF70BF900BF0008002057
:1044600030DD000800000000000000000000000037
:10447000F0B51D4E83B033680193054670B37E22BC
:104480007F212846FFF7B4FF80B1012806D0002025
:10449000019A33689A4225D103B0F0BD28463022F4
:1044A0004521FFF7A5FF01308002F1E73E224921B7
:1044B0002846FFF79DFF2F22044631212846FFF7AB
:1044C00097FF5022074653212846FFF791FF0134FA
:1044D00002370938BC4004FA00F0D9E70348FDF779
:1044E00017FFCCE7FDF7C4F80008002050DD0008F6
:1044F000F0B5104D83B02B680193044698B194F841
:10450000D63094F8D770019994F8D4602A6894F85A
:10451000D5001B0403EB07633344914203EB0020F7
:1045200005D103B0F0BD0448FDF7F2FEE7E7FDF763
:104530009FF800BF0008002070DD000800000000A8
:1045400000B5074B83B01A680192019A1B689A4222
:1045500004D103B05DF804EB02F0E2B8FDF788F88F
:104560000008002000000000000000000000000023
:1045700000B50C4B83B01A680192012202700199B8
:104580001A6800239142C0E90133C0E90333436153
:1045900005D1183003B05DF804EBFFF739B8FDF72B
:1045A00067F800BF000800200000000000000000C5
:1045B00070B51D4D82B02B6801930E46044668B35A
:1045C000202383F31188FEF70BFFFDF741FF2378CB
:1045D000013B012B02D91548FDF79AFE2046666083
:1045E00002F0EEF802232370FDF752FFFEF710FFF2
:1045F0000F4B1A689A4204D0996993688A689A4264
:1046000008D3002383F31188019A2B689A4209D1B9
:1046100002B070BD0748FDF77BFEF2E70348FDF7E7
:1046200077FECDE7FDF724F800080020A0DD0008A4
:104630002016002090DD00080000000000000000AF
:104640002DE9F041174D82B00446286801900E46CE
:1046500090461F46FDF7CCFF3CB136B1B8F1000FD4
:1046600003D0012F04D0FB0702D50F48FDF750FE01
:104670002378022B05D0043B012B02D90A48FDF711
:1046800047FE03232370019A2B6826619A42C4E9EE
:10469000028705D1204602B0BDE8F04102F010B912
:1046A000FCF7E6FF00080020B0DD00080000000075
:1046B0002DE9F041184C82B02568019598460546D1
:1046C0000E461746202383F31188FEF789FEFDF777
:1046D000BFFE43463A4631462846FFF7B1FFFDF795
:1046E000D7FEFEF795FE0D4B1A689A4204D09969E1
:1046F00093688A689A4209D3002383F31188019A48
:1047000023689A4206D102B0BDE8F0810448FDF763
:10471000FFFDF1E7FCF7ACFF0008002020160020A9
:1047200090DD000800000000000000000000000014
:1047300030B50B4C83B023680193054650B1019A04
:1047400023689A420AD105F1180003B0BDE8304051
:10475000FFF746B80348FDF7DBFDF0E7FCF788FFFD
:1047600000080020D0DD000800000000000000006C
:1047700000B5074B83B01A680192019A1B689A42F0
:1047800004D103B05DF804EB02F0EABEFCF770FF61
:1047900000080020000000000000000000000000F1
:1047A00030B5134B83B01A68019201220270019C4C
:1047B0001968002200F1180300F11C0542608361B2
:1047C00000F1200200F12403C561026200F1280516
:1047D00000F1080243628C4200F110038562C0E9D7
:1047E0000222C0E9043301D103B030BDFCF740FF21
:1047F0000008002000000000000000000000000091
:1048000000B5074B83B01A680192019A1B689A425F
:1048100004D103B05DF804EB03F03ABBFCF728FFCA
:104820000008002000000000000000000000000060
:1048300000B50A4B83B01A680192012202700199F7
:104840001A6800239142C0E9043305D1183003B03F
:104850005DF804EBFEF7DCBEFCF70AFF0008002061
:1048600000B5074B83B01A680192019A1B689A42FF
:1048700004D103B05DF804EB02F092BEFCF7F8FE41
:104880000008002000000000000000000000000000
:1048900000B5084B83B01A68019201220270019A98
:1048A0001B6800219A42416002D103B05DF804FB0D
:1048B000FCF7DEFE00080020000000000000000001
:1048C00000B5074B83B01A680192019A1B689A429F
:1048D00004D103B05DF804EB04F0FABBFCF7C8FEAA
:1048E00000080020000000000000000000000000A0
:1048F00000B5084B83B01A68019201220270019A38
:104900001B6800219A42416002D103B05DF804FBAC
:10491000FCF7AEFE000800200000000000000000D0
:1049200000B5074B83B01A680192019A1B689A423E
:1049300004D103B05DF804EB03F0C2BDFCF798FEB0
:10494000000800200000000000000000000000003F
:1049500000B50A4B83B01A68019201220270019AD5
:104960001B6800219A42416005D10C3003B05DF80C
:1049700004EBFEF74DBEFCF77BFE00BF00080020F5
:1049800070B51F4D82B02B6801930E46044680B36C
:1049900079B323785A1E012A04D9052B02D019486D
:1049A000FDF7B6FC202383F31188FEF719FDFDF710
:1049B0004FFD2046666003F0ABFD02232370FDF738
:1049C00067FDFEF725FD104B1A689A4204D09969DD
:1049D00093688A689A4208D3002383F31188019A66
:1049E0002B689A4209D102B070BD0848FDF790FCCF
:1049F000F2E70448FDF78CFCCBE7FCF739FE00BF7B
:104A000000080020F0DD000820160020E0DD00088E
:104A100000B5074B83B01A680192019A1B689A424D
:104A200004D103B05DF804EB04F092BAFCF720FE69
:104A3000000800200000000000000000000000004E
:104A400000B5084B83B01A68019201220270019AE6
:104A50001B6800219A42416002D103B05DF804FB5B
:104A6000FCF706FE00080020000000000000000027
:104A700000B5074B83B01A680192019A1B689A42ED
:104A800004D103B05DF804EB04F00ABCFCF7F0FDC0
:104A900000080020000000000000000000000000EE
:104AA00000B5094B83B01A68019201220270019986
:104AB0001A68002391424360C360037402D103B0BB
:104AC0005DF804FBFCF7D4FD0008002000000000A6
:104AD00070B5214E82B0336801930D46044600281C
:104AE00033D0002931D0202383F31188FEF778FCDE
:104AF000FDF7AEFC2378013B012B02D91748FDF7E7
:104B000007FC65606B68A360204604F009FC002286
:104B10000223E2602370FDF7BBFCFEF779FC104B2B
:104B20001A689A4204D0996993688A689A4208D3AD
:104B3000002383F31188019A33689A4209D102B0A5
:104B400070BD0848FDF7E4FBF2E70448FDF7E0FB21
:104B5000C9E7FCF78DFD00BF0008002010DE00084B
:104B60002016002000DE0008000000000000000009
:104B7000F0B5214E83B0336801930D4617460446C5
:104B800078B3037C8B422CD9202383F31188FEF762
:104B900027FCFDF75DFC2378022B02D01748FDF7B8
:104BA000B7FBE3680122AA401343E3603A46294673
:104BB000204604F09DFCFDF76BFCFEF729FC104B32
:104BC0001A689A4204D0996993688A689A420CD309
:104BD000002383F31188019A33689A4209D103B004
:104BE000F0BD0648FDF794FBCEE70648FDF790FBC5
:104BF000EEE7FCF73DFD00BF0008002020DE0008C6
:104C00002016002000DE0008000000000000000068
:104C100030B51E4D83B02B680193044680B320232A
:104C200083F31188FEF7DCFBFDF712FC2378022BDF
:104C300002D01748FDF76CFB63689B68E3B1204620
:104C400004F06EFCFDF724FCFEF7E2FB114B1A6842
:104C50009A4204D0996993688A689A4208D30023DB
:104C600083F31188019A2B689A420DD103B030BDAD
:104C70000948FDF74DFBF2E70548FDF749FBDEE784
:104C80000348FDF745FBCAE7FCF7F2FC00080020EB
:104C900040DE00082016002000DE000800000000B2
:104CA00070B5294E82B0336801930D460446002842
:104CB00032D0037C8B422FD9202383F31188FEF757
:104CC0008FFBFDF7C5FB2378022B02D01F48FDF7B1
:104CD0001FFBE368EB40DB0726D5636803EBC503E6
:104CE0001B6953B32946204604F03AFCFDF7D0FB7C
:104CF000FEF78EFB164B1A689A4204D099699368A6
:104D00008A689A420CD3002383F31188019A33688E
:104D10009A4216D102B070BD0C48FDF7F9FACBE704
:104D20000C48FDF7F5FAEEE70848FDF7F1FA63687D
:104D300003EBC5031B69002BD4D10448FDF7E8FA47
:104D4000D0E7FCF795FC00BF0008002060DE0008FB
:104D50002016002000DE0008000000000000000017
:104D600070B5104D82B02B6801930E46044650B1C9
:104D700049B12379052B0CD00120019A2B689A4266
:104D80000ED102B070BD0848FDF7C2FA2379052B99
:104D9000F2D1A36A73604FF4007333600020ECE734
:104DA000FCF766FC00080020F0DE000800000000B0
:104DB0002DE9F047DFF89C8386B002AFD8F80030C9
:104DC000FB600446002800F019812379022B01D0F2
:104DD000052B2BD103232371204602F079FC0022FE
:104DE0001146204602F0ECFC07F108034FF4D5729F
:104DF0000821204602F02CFDE0B9BB680122C3F374
:104E000003239342226300F0FD80204602F098FCC9
:104E1000022323710125FA68D8F800309A42284607
:104E200040F046811037BD46BDE8F087C048FDF729
:104E30006FFACFE707F1080300223721204602F07E
:104E400007FD002840F0BE80BB68BA4A1A40002A1D
:104E500040F0B88022631146204602F0B1FC266B78
:104E600006F00F03022B00F0AF80B34EB34ADFF819
:104E7000C492012B18BF1646642504E0013DC4D03E
:104E80000A20FEF71DF807F108030022372120460B
:104E900002F0DEFC0028B8D1BB6813EA090FB4D1D8
:104EA00007F1080332462921204602F0A9FC002818
:104EB000ABD1BB68002BE1DA5B0003D5236B43F079
:104EC0001003236304F1080300220221204602F0AC
:104ED000B7FD002899D1024604F13803032120468A
:104EE00002F0B6FC002890D104F118052B46A26B05
:104EF0000921204602F0A4FD002886D13B1DA26BAB
:104F00000721204602F0A4FC824600287FF47DAFF2
:104F1000236B03F00F03022B00F097806E467E2276
:104F200090B07F212846FFF763FA0DF108090028A9
:104F300079D10146B546204602F0EAFB236B03F027
:104F40000F03022B00F096802846FFF791FAA0622B
:104F50003B1D4FF400721021204602F079FC0546FB
:104F600000287FF452AF7B68724E33427FF44DAF1E
:104F7000236B03F00F03012B40F2B280022B7FF46E
:104F800044AFE36A1A79012A00F0A88017D3022AF5
:104F900040F0E2806A4E1979204602F0E9FB07F101
:104FA000080332460621204602F052FC00287FF416
:104FB0002CAFBA685F4B1340002B7FF426AF05235C
:104FC000237128E7022323635E4E642505E0013D3B
:104FD0003FF41BAF0A20FDF773FF07F108033246C9
:104FE0000121204602F00CFC00287FF40EAFBB68C4
:104FF000002BECDA5B007FF565AF5FE74C48FDF70F
:1050000087F9E2E6024607F108033721204602F05D
:105010001FFC00287FF4F9AEBA68464B1340002B02
:105020007FF4F3AE1BE7CDF800A0062340224946EB
:10503000204602F035FD00284ED199F80D3013F0CE
:10504000020337D11946B54675E7E36A1B687BB1A1
:1050500007F108033C4A0621204602F0F9FB38B963
:10506000BB6834491940B1FA81F1490963E7B54693
:10507000002160E77E227F212846FFF7B9F9012849
:105080007FF662AFE36A1D68002D3FF4BEAE0023D9
:1050900000934FF4007208232946204602F000FDD9
:1050A00000287FF4B2AE2846FFF722FAA0624FE74D
:1050B000FCF7DEFA254B00934022062349462046A2
:1050C00002F0EEFC40B999F8103003F00F030F2BFB
:1050D000CDD0B54601212EE7B54696E61C4E5AE7DF
:1050E000E36A197900293FF46AAF01297FF48DAE94
:1050F000204602F03DFB07F10803A26B3721204652
:1051000002F0A6FB00287FF480AEBB6833427FF438
:105110007CAE07F1080302220621204602F098FB2C
:1051200000287FF472AEBB6833423FF448AF6CE6B0
:10513000A0DE000808E0FFFD000010C000001080A5
:105140000002B7030080FFC00001B903F1FFFF8038
:105150000001B703000800200248034EFDF7D8F80D
:10516000E36A18E780DE00080000B70300000000D3
:105170002DE9F041194D82B02C6801940F469046FC
:105180001E460446C0B1BAB1B3B12379052B02D093
:105190001348FDF7BDF8781EA36A304498420FD932
:1051A000636B43F0800363630120019A2B689A428A
:1051B00011D102B0BDE8F0810948FDF7A9F8E4E794
:1051C00006203346207142463946204602F0C8FD8B
:1051D00005232371E9E7FCF74BFA00BF0008002024
:1051E000C0DE000800000000000000000000000019
:1051F0002DE9F041194D82B02C6801940F4690467C
:105200001E460446C0B1BAB1B3B12379052B02D012
:105210001348FDF77DF8781EA36A304498420FD9F1
:10522000636B43F0800363630120019A2B689A4209
:1052300011D102B0BDE8F0810948FDF769F8E4E753
:1052400007203346207142463946204602F0C8FD09
:1052500005232371E9E7FCF70BFA00BF00080020E3
:10526000D0DE000800000000000000000000000088
:1052700070B50E4D82B02B680193044680B126793B
:10528000052E06D00120019A2B689A420CD102B05B
:1052900070BD08232371204602F0E2FD2671F2E77B
:1052A0000348FDF735F8EAE7FCF7E2F900080020CB
:1052B000E0DE000800000000000000000000000028
:1052C00070B5124D124E2B6882B0044601936B46A6
:1052D000A26B0D21204602F0BBFA78B9009B334245
:1052E0000BD1C3F34323042B08D04FF0010005D3A7
:1052F000072B03D8FDF7E4FDE9E70120019A2B68AD
:105300009A4201D102B070BDFCF7B2F9000800204A
:1053100008E0FFFD000000000000000000000000A9
:1053200070B52D4E82B033680193044600284CD0EE
:10533000202383F31188FEF753F8FDF789F82379CA
:10534000022B29D0052B21D104232371FDF7A0F8CE
:10535000FEF75EF8214B1A689A4204D09969936867
:105360008A689A4229D3002383F311882046FFF7E5
:10537000A7FF0546204602F0E3F902232371019AB4
:1053800033689A42284624D102B070BD1448FCF715
:10539000BFFF2379022BD7D1FDF77AF8FEF738F853
:1053A0000E4B1A689A4204D0996993688A689A42A7
:1053B00007D3002585F31188E1E70A48FCF7A8FF29
:1053C000D1E70848FCF7A4FFF3E70548FCF7A0FF86
:1053D000AEE7FCF74DF900BF0008002020160020C2
:1053E000B0DE000800DF0008000000000000000040
:1053F00000B5074B83B01A680192019A1B689A4264
:1054000004D103B05DF804EB02F042B9FCF730F9C7
:105410000008002000000000000000000000000064
:1054200010B50A4B0A4A1968026082B00124019142
:1054300001991A680471002391424363C0E90A3359
:1054400001D102B010BDFCF713F900BF0008002025
:1054500010DF000800000000000000000000000055
:1054600030B5084C83B025680195019D2468A5429C
:1054700005D10C3003B0BDE83040FEF7D1BCFCF7DD
:10548000F7F800BF00080020000000000000000046
:1054900010B5094B82B01C680194019C1B689C42AA
:1054A00007D10C304FF0FF3302B0BDE81040FEF7DB
:1054B000B7BCFCF7DDF800BF0008002000000000CA
:1054C00030B5084C83B025680195019D2468A5423C
:1054D00005D1303003B0BDE83040FEF7D9BDFCF750
:1054E000C7F800BF00080020000000000000000016
:1054F00010B5094B82B01C680194019C1B689C424A
:1055000007D130304FF0FF3302B0BDE81040FEF756
:10551000BFBDFCF7ADF800BF000800200000000090
:1055200000B5084B83B01A680192019A1B689A4231
:1055300005D10C3003B05DF804EBFEF721BCFCF79D
:1055400097F800BF000800200000000000000000E5
:1055500000B5094B83B01A680192019A1B689A4200
:1055600007D10C304FF0FF3103B05DF804EBFEF7CC
:1055700007BCFCF77DF800BF000800200000000019
:1055800010B5084B82B01C680194019C1B689C42BA
:1055900005D1303002B0BDE81040FEF7E1BCFCF7A9
:1055A00067F800BF000800200000000000000000B5
:1055B00000B5094B83B01A680192019A1B689A42A0
:1055C00007D130304FF0FF3203B05DF804EBFEF747
:1055D000C7BCFCF74DF800BF000800200000000029
:1055E00000B5074B83B01A680192019A1B689A4272
:1055F00004D103B05DF804EB04F002B9FCF738F80D
:105600000008002000000000000000000000000072
:10561000F0B5144D144B2F68044685B040F8043B98
:105620004FF0010C00940B461646606084F808C0E9
:1056300004F1540104F10C0010220397FEF750FB13
:1056400033461022009404F1640104F13000FEF7A7
:1056500067FC039A2B689A4201D105B0F0BDFCF7B4
:1056600007F800BF0008002060DF0008000000000D
:1056700070B51D4D82B02B6801930E46044668B389
:10568000202383F31188FDF7ABFEFCF7E1FE237ABC
:10569000013B012B02D91548FCF73AFE3146204662
:1056A00004F0CEF802232372FCF7F2FEFDF7B0FE01
:1056B0000F4B1A689A4204D0996993688A689A4293
:1056C00008D3002383F31188019A2B689A4209D1E9
:1056D00002B070BD0748FCF71BFEF2E70348FCF779
:1056E00017FECDE7FBF7C4FF0008002040DF0008ED
:1056F0002016002030DF000800000000000000003D
:1057000070B5174D82B004462B6801930E46FCF726
:105710006FFFF4B1FCF76CFF636963B1314604F1CC
:105720000C00FEF7FDFA0028019A2B6808DB9A426C
:1057300013D102B070BD04216018FEF7A1FAEDE7A5
:105740009A420AD1201D802102B0BDE87040FEF7C8
:1057500097BA0448FCF7DCFDDCE7FBF789FF00BFE4
:105760000008002050DF00080000000000000000DA
:1057700000B5064B83B01A680192019A1B689A42E1
:1057800002D103B05DF804FBFBF772FF00080020B4
:1057900000B5074B83B01A680192019A1B689A42C0
:1057A00004D103B05DF804EB03F0FABBFBF760FF34
:1057B00000080020000000000000000000000000C1
:1057C00000B50A4B83B01A68019201220270019958
:1057D0001A6800239142C0E9013305D10C3003B0AF
:1057E0005DF804EBFDF714BFFBF742FF0008002053
:1057F00000B5074B83B01A680192019A1B689A4260
:1058000004D103B05DF804EB03F0F2BEFBF730FF08
:105810000008002000000000000000000000000060
:1058200000B5074B83B01A680192019A1B689A422F
:1058300004D103B05DF804EB02F0AABFFBF718FF38
:105840000008002000000000000000000000000030
:1058500000B50C4B83B01A680192012202700199C5
:105860001A6800239142C36183620362C362436288
:105870000363C0E9013302D103B05DF804FBFBF719
:10588000F7FE00BF0008002000000000000000003C
:10589000F0B5124D83B004462B6801930E46FCF719
:1058A000A7FEA4B1012000FA06F362899BB212EAB6
:1058B000030706D1134320466381314603F080FA83
:1058C0003846019A2B689A4205D103B0F0BD0448CE
:1058D000FCF71EFDE6E7FBF7CBFE00BF000800204B
:1058E00080DF000800000000000000000000000051
:1058F000F0B5124D83B004462B6801930E46FCF7B9
:1059000077FEA4B1012000FA06F322899BB212EAC5
:10591000030706D1134320462381314603F070FA72
:105920003846019A2B689A4205D103B0F0BD04486D
:10593000FCF7EEFCE6E7FBF79BFE00BF000800204B
:10594000A0DF0008000000000000000000000000D0
:1059500010B50D4A82B01168019102210170019CBD
:10596000116800228C42C264C0E90222C0E904220C
:10597000826180F8342004D102B0BDE8104002F00A
:1059800037BFFBF775FE00BF0008002000000000D5
:10599000F0B5C34D83B0044600222B6880F8342054
:1059A00000F14402019302F0FBFF63689B68002B47
:1059B00036D02046984798B3E16B94F8443094F879
:1059C0004B0094F84A2042EA00228A422CBF0A4641
:1059D000E2631806E16800F1A680002A00F08480E6
:1059E000042384F834308B69A16BD96000265A6097
:1059F0001E709E603146204602F0EAFF202383F3AA
:105A00001188FDF71DFDFCF763FD31462046FFF7C9
:105A10003FFFFCF77DFDFDF72BFD86F3118816E0B7
:105A200094F8443013F06006184617D00021204641
:105A300003F02EFA0021204603F00AFA63681B687F
:105A400013B1052120469847062384F83430019A83
:105A50002B689A4240F03A8103B0F0BD94F84510AB
:105A600003F07F0242EA0122B2F5407F00F0058197
:105A700017D9B2F5C06F00F0C68040F28A80B2F547
:105A8000106F64D040F602418A4200F0D880B2F52F
:105A9000006FCBD104F14F0201212664C4E90E212D
:105AA0008DE7022A00F0D28040F29280B2F5807F2A
:105AB00060D0B2F5817FB9D194F84630002BB5D1D2
:105AC00094F8483013F00F0107D01F06204600F16C
:105AD000F38003F0FDF994F844000023C4E90E3389
